{
  "address": "0xA6b2b647EF832F94017412662158aDbb7EAEF0a9",
  "abi": [
    {
      "inputs": [
        {
          "internalType": "string",
          "name": "name_",
          "type": "string"
        },
        {
          "internalType": "string",
          "name": "symbol_",
          "type": "string"
        },
        {
          "internalType": "address",
          "name": "authorizedSigner_",
          "type": "address"
        },
        {
          "internalType": "contract IERC20",
          "name": "saleToken_",
          "type": "address"
        },
        {
          "internalType": "uint256",
          "name": "tokenPrice_",
          "type": "uint256"
        }
      ],
      "stateMutability": "nonpayable",
      "type": "constructor"
    },
    {
      "inputs": [],
      "name": "ApprovalCallerNotOwnerNorApproved",
      "type": "error"
    },
    {
      "inputs": [],
      "name": "ApprovalQueryForNonexistentToken",
      "type": "error"
    },
    {
      "inputs": [],
      "name": "ApprovalToCurrentOwner",
      "type": "error"
    },
    {
      "inputs": [],
      "name": "ApproveToCaller",
      "type": "error"
    },
    {
      "inputs": [],
      "name": "BalanceQueryForZeroAddress",
      "type": "error"
    },
    {
      "inputs": [],
      "name": "MintToZeroAddress",
      "type": "error"
    },
    {
      "inputs": [],
      "name": "MintZeroQuantity",
      "type": "error"
    },
    {
      "inputs": [],
      "name": "OwnerQueryForNonexistentToken",
      "type": "error"
    },
    {
      "inputs": [],
      "name": "TransferCallerNotOwnerNorApproved",
      "type": "error"
    },
    {
      "inputs": [],
      "name": "TransferFromIncorrectOwner",
      "type": "error"
    },
    {
      "inputs": [],
      "name": "TransferToNonERC721ReceiverImplementer",
      "type": "error"
    },
    {
      "inputs": [],
      "name": "TransferToZeroAddress",
      "type": "error"
    },
    {
      "inputs": [],
      "name": "URIQueryForNonexistentToken",
      "type": "error"
    },
    {
      "anonymous": false,
      "inputs": [
        {
          "indexed": true,
          "internalType": "address",
          "name": "owner",
          "type": "address"
        },
        {
          "indexed": true,
          "internalType": "address",
          "name": "approved",
          "type": "address"
        },
        {
          "indexed": true,
          "internalType": "uint256",
          "name": "tokenId",
          "type": "uint256"
        }
      ],
      "name": "Approval",
      "type": "event"
    },
    {
      "anonymous": false,
      "inputs": [
        {
          "indexed": true,
          "internalType": "address",
          "name": "owner",
          "type": "address"
        },
        {
          "indexed": true,
          "internalType": "address",
          "name": "operator",
          "type": "address"
        },
        {
          "indexed": false,
          "internalType": "bool",
          "name": "approved",
          "type": "bool"
        }
      ],
      "name": "ApprovalForAll",
      "type": "event"
    },
    {
      "anonymous": false,
      "inputs": [
        {
          "indexed": true,
          "internalType": "address",
          "name": "sender",
          "type": "address"
        },
        {
          "indexed": false,
          "internalType": "address",
          "name": "oldAddress",
          "type": "address"
        },
        {
          "indexed": false,
          "internalType": "address",
          "name": "newAddress",
          "type": "address"
        }
      ],
      "name": "AuthorizedSignerAddress",
      "type": "event"
    },
    {
      "anonymous": false,
      "inputs": [
        {
          "indexed": true,
          "internalType": "address",
          "name": "previousOwner",
          "type": "address"
        },
        {
          "indexed": true,
          "internalType": "address",
          "name": "newOwner",
          "type": "address"
        }
      ],
      "name": "OwnershipTransferred",
      "type": "event"
    },
    {
      "anonymous": false,
      "inputs": [
        {
          "indexed": true,
          "internalType": "uint256",
          "name": "tokenId",
          "type": "uint256"
        },
        {
          "indexed": true,
          "internalType": "bytes32",
          "name": "externalId",
          "type": "bytes32"
        }
      ],
      "name": "SetExternalID",
      "type": "event"
    },
    {
      "anonymous": false,
      "inputs": [
        {
          "indexed": true,
          "internalType": "address",
          "name": "from",
          "type": "address"
        },
        {
          "indexed": true,
          "internalType": "address",
          "name": "to",
          "type": "address"
        },
        {
          "indexed": true,
          "internalType": "uint256",
          "name": "tokenId",
          "type": "uint256"
        }
      ],
      "name": "Transfer",
      "type": "event"
    },
    {
      "anonymous": false,
      "inputs": [
        {
          "indexed": false,
          "internalType": "contract IERC20",
          "name": "oldSaleToken",
          "type": "address"
        },
        {
          "indexed": false,
          "internalType": "uint256",
          "name": "oldTokenPrice",
          "type": "uint256"
        },
        {
          "indexed": false,
          "internalType": "contract IERC20",
          "name": "newSaleToken",
          "type": "address"
        },
        {
          "indexed": false,
          "internalType": "uint256",
          "name": "newTokenPrice",
          "type": "uint256"
        }
      ],
      "name": "UpdatePriceSettings",
      "type": "event"
    },
    {
      "anonymous": false,
      "inputs": [
        {
          "indexed": true,
          "internalType": "address",
          "name": "sender",
          "type": "address"
        },
        {
          "indexed": false,
          "internalType": "string",
          "name": "oldURI",
          "type": "string"
        },
        {
          "indexed": false,
          "internalType": "string",
          "name": "newURI",
          "type": "string"
        }
      ],
      "name": "UpdateURI",
      "type": "event"
    },
    {
      "anonymous": false,
      "inputs": [
        {
          "indexed": true,
          "internalType": "address",
          "name": "sender",
          "type": "address"
        },
        {
          "indexed": false,
          "internalType": "address",
          "name": "saleToken",
          "type": "address"
        },
        {
          "indexed": false,
          "internalType": "uint256",
          "name": "totalWithdrawn",
          "type": "uint256"
        }
      ],
      "name": "Withdraw",
      "type": "event"
    },
    {
      "inputs": [
        {
          "internalType": "address",
          "name": "to",
          "type": "address"
        },
        {
          "internalType": "uint256",
          "name": "tokenId",
          "type": "uint256"
        }
      ],
      "name": "approve",
      "outputs": [],
      "stateMutability": "nonpayable",
      "type": "function"
    },
    {
      "inputs": [],
      "name": "authorizedSignerAddress",
      "outputs": [
        {
          "internalType": "address",
          "name": "",
          "type": "address"
        }
      ],
      "stateMutability": "view",
      "type": "function"
    },
    {
      "inputs": [
        {
          "internalType": "address",
          "name": "owner",
          "type": "address"
        }
      ],
      "name": "balanceOf",
      "outputs": [
        {
          "internalType": "uint256",
          "name": "",
          "type": "uint256"
        }
      ],
      "stateMutability": "view",
      "type": "function"
    },
    {
      "inputs": [],
      "name": "baseURI",
      "outputs": [
        {
          "internalType": "string",
          "name": "",
          "type": "string"
        }
      ],
      "stateMutability": "view",
      "type": "function"
    },
    {
      "inputs": [
        {
          "internalType": "uint256",
          "name": "tokenId",
          "type": "uint256"
        }
      ],
      "name": "burn",
      "outputs": [],
      "stateMutability": "nonpayable",
      "type": "function"
    },
    {
      "inputs": [
        {
          "internalType": "address",
          "name": "signerAddress",
          "type": "address"
        }
      ],
      "name": "changeAuthorizedSignerAddress",
      "outputs": [],
      "stateMutability": "nonpayable",
      "type": "function"
    },
    {
      "inputs": [
        {
          "internalType": "bytes32",
          "name": "",
          "type": "bytes32"
        }
      ],
      "name": "externalID",
      "outputs": [
        {
          "internalType": "uint256",
          "name": "",
          "type": "uint256"
        }
      ],
      "stateMutability": "view",
      "type": "function"
    },
    {
      "inputs": [
        {
          "internalType": "uint256",
          "name": "tokenId",
          "type": "uint256"
        }
      ],
      "name": "getApproved",
      "outputs": [
        {
          "internalType": "address",
          "name": "",
          "type": "address"
        }
      ],
      "stateMutability": "view",
      "type": "function"
    },
    {
      "inputs": [
        {
          "internalType": "address",
          "name": "owner",
          "type": "address"
        },
        {
          "internalType": "address",
          "name": "operator",
          "type": "address"
        }
      ],
      "name": "isApprovedForAll",
      "outputs": [
        {
          "internalType": "bool",
          "name": "",
          "type": "bool"
        }
      ],
      "stateMutability": "view",
      "type": "function"
    },
    {
      "inputs": [],
      "name": "name",
      "outputs": [
        {
          "internalType": "string",
          "name": "",
          "type": "string"
        }
      ],
      "stateMutability": "view",
      "type": "function"
    },
    {
      "inputs": [],
      "name": "owner",
      "outputs": [
        {
          "internalType": "address",
          "name": "",
          "type": "address"
        }
      ],
      "stateMutability": "view",
      "type": "function"
    },
    {
      "inputs": [
        {
          "internalType": "uint256",
          "name": "tokenId",
          "type": "uint256"
        }
      ],
      "name": "ownerOf",
      "outputs": [
        {
          "internalType": "address",
          "name": "",
          "type": "address"
        }
      ],
      "stateMutability": "view",
      "type": "function"
    },
    {
      "inputs": [],
      "name": "renounceOwnership",
      "outputs": [],
      "stateMutability": "nonpayable",
      "type": "function"
    },
    {
      "inputs": [
        {
          "internalType": "address",
          "name": "to",
          "type": "address"
        },
        {
          "internalType": "uint256",
          "name": "totalMint",
          "type": "uint256"
        },
        {
          "internalType": "bytes32[]",
          "name": "externalId",
          "type": "bytes32[]"
        },
        {
          "internalType": "uint256",
          "name": "salt",
          "type": "uint256"
        },
        {
          "internalType": "bytes",
          "name": "signature",
          "type": "bytes"
        }
      ],
      "name": "safeMint",
      "outputs": [],
      "stateMutability": "payable",
      "type": "function"
    },
    {
      "inputs": [
        {
          "internalType": "address",
          "name": "from",
          "type": "address"
        },
        {
          "internalType": "address",
          "name": "to",
          "type": "address"
        },
        {
          "internalType": "uint256",
          "name": "tokenId",
          "type": "uint256"
        }
      ],
      "name": "safeTransferFrom",
      "outputs": [],
      "stateMutability": "nonpayable",
      "type": "function"
    },
    {
      "inputs": [
        {
          "internalType": "address",
          "name": "from",
          "type": "address"
        },
        {
          "internalType": "address",
          "name": "to",
          "type": "address"
        },
        {
          "internalType": "uint256",
          "name": "tokenId",
          "type": "uint256"
        },
        {
          "internalType": "bytes",
          "name": "_data",
          "type": "bytes"
        }
      ],
      "name": "safeTransferFrom",
      "outputs": [],
      "stateMutability": "nonpayable",
      "type": "function"
    },
    {
      "inputs": [],
      "name": "saleToken",
      "outputs": [
        {
          "internalType": "contract IERC20",
          "name": "",
          "type": "address"
        }
      ],
      "stateMutability": "view",
      "type": "function"
    },
    {
      "inputs": [
        {
          "internalType": "address",
          "name": "operator",
          "type": "address"
        },
        {
          "internalType": "bool",
          "name": "approved",
          "type": "bool"
        }
      ],
      "name": "setApprovalForAll",
      "outputs": [],
      "stateMutability": "nonpayable",
      "type": "function"
    },
    {
      "inputs": [
        {
          "internalType": "string",
          "name": "newBaseURIPrefix",
          "type": "string"
        }
      ],
      "name": "setBaseURI",
      "outputs": [],
      "stateMutability": "nonpayable",
      "type": "function"
    },
    {
      "inputs": [
        {
          "internalType": "bytes4",
          "name": "interfaceId",
          "type": "bytes4"
        }
      ],
      "name": "supportsInterface",
      "outputs": [
        {
          "internalType": "bool",
          "name": "",
          "type": "bool"
        }
      ],
      "stateMutability": "view",
      "type": "function"
    },
    {
      "inputs": [],
      "name": "symbol",
      "outputs": [
        {
          "internalType": "string",
          "name": "",
          "type": "string"
        }
      ],
      "stateMutability": "view",
      "type": "function"
    },
    {
      "inputs": [],
      "name": "tokenPrice",
      "outputs": [
        {
          "internalType": "uint256",
          "name": "",
          "type": "uint256"
        }
      ],
      "stateMutability": "view",
      "type": "function"
    },
    {
      "inputs": [
        {
          "internalType": "uint256",
          "name": "tokenId",
          "type": "uint256"
        }
      ],
      "name": "tokenURI",
      "outputs": [
        {
          "internalType": "string",
          "name": "",
          "type": "string"
        }
      ],
      "stateMutability": "view",
      "type": "function"
    },
    {
      "inputs": [],
      "name": "totalSupply",
      "outputs": [
        {
          "internalType": "uint256",
          "name": "",
          "type": "uint256"
        }
      ],
      "stateMutability": "view",
      "type": "function"
    },
    {
      "inputs": [
        {
          "internalType": "address",
          "name": "from",
          "type": "address"
        },
        {
          "internalType": "address",
          "name": "to",
          "type": "address"
        },
        {
          "internalType": "uint256",
          "name": "tokenId",
          "type": "uint256"
        }
      ],
      "name": "transferFrom",
      "outputs": [],
      "stateMutability": "nonpayable",
      "type": "function"
    },
    {
      "inputs": [
        {
          "internalType": "address",
          "name": "newOwner",
          "type": "address"
        }
      ],
      "name": "transferOwnership",
      "outputs": [],
      "stateMutability": "nonpayable",
      "type": "function"
    },
    {
      "inputs": [
        {
          "internalType": "contract IERC20",
          "name": "newSaleToken",
          "type": "address"
        },
        {
          "internalType": "uint256",
          "name": "newTokenPrice",
          "type": "uint256"
        }
      ],
      "name": "updatePriceSettings",
      "outputs": [],
      "stateMutability": "nonpayable",
      "type": "function"
    },
    {
      "inputs": [
        {
          "internalType": "bytes32",
          "name": "",
          "type": "bytes32"
        }
      ],
      "name": "usedExternalID",
      "outputs": [
        {
          "internalType": "bool",
          "name": "",
          "type": "bool"
        }
      ],
      "stateMutability": "view",
      "type": "function"
    },
    {
      "inputs": [
        {
          "internalType": "contract IERC20",
          "name": "token_",
          "type": "address"
        }
      ],
      "name": "withdraw",
      "outputs": [],
      "stateMutability": "nonpayable",
      "type": "function"
    }
  ],
  "transactionHash": "0x5dda17bd5358c6950dd1aa4d2501aaa9a85d15dd20d47e4b658410d1b715d523",
  "args": [
    "TVTEST",
    "TVTEST",
    "0x6BbaF8dE2Da04d5F9933a9AdC2fC40fD125C0a6b",
    "0x0000000000000000000000000000000000000000",
    "10000000000000000"
  ],
  "numDeployments": 1,
  "solcInputHash": "fc4ac84ba5fbb1381c7c6f22c1a6edcb",
  "bytecode": "0x60806040523480156200001157600080fd5b506040516200631f3803806200631f833981810160405281019062000037919062000548565b8484816002908051906020019062000051929190620003e1565b5080600390805190602001906200006a929190620003e1565b506200007b6200017660201b60201c565b6000819055505050620000a3620000976200017b60201b60201c565b6200018360201b60201c565b82600c60006101000a81548173ffffffffffffffffffffffffffffffffffffffff021916908373ffffffffffffffffffffffffffffffffffffffff160217905550620000f682826200024960201b60201c565b3373ffffffffffffffffffffffffffffffffffffffff167f2a1c126daaa5a808c12b7dc0e4a2d384d7a506dc888299a8940fc569444c4aeb6000600c60009054906101000a900473ffffffffffffffffffffffffffffffffffffffff166040516200016392919062000656565b60405180910390a2505050505062000964565b600090565b600033905090565b6000600860009054906101000a900473ffffffffffffffffffffffffffffffffffffffff16905081600860006101000a81548173ffffffffffffffffffffffffffffffffffffffff021916908373ffffffffffffffffffffffffffffffffffffffff1602179055508173ffffffffffffffffffffffffffffffffffffffff168173ffffffffffffffffffffffffffffffffffffffff167f8be0079c531659141344cd1fd0a4f28419497f9722a3daafe3b4186f6b6457e060405160405180910390a35050565b620002596200017b60201b60201c565b73ffffffffffffffffffffffffffffffffffffffff166200027f620003b760201b60201c565b73ffffffffffffffffffffffffffffffffffffffff1614620002d8576040517f08c379a0000000000000000000000000000000000000000000000000000000008152600401620002cf90620006d0565b60405180910390fd5b6000600f60009054906101000a900473ffffffffffffffffffffffffffffffffffffffff1690506000600e54905082600e8190555083600f60006101000a81548173ffffffffffffffffffffffffffffffffffffffff021916908373ffffffffffffffffffffffffffffffffffffffff1602179055507f26c66ad60791b432b53bdc302db41307126d30fc0b446de812b21312423d04c98282600f60009054906101000a900473ffffffffffffffffffffffffffffffffffffffff16600e54604051620003a9949392919062000683565b60405180910390a150505050565b6000600860009054906101000a900473ffffffffffffffffffffffffffffffffffffffff16905090565b828054620003ef9062000812565b90600052602060002090601f0160209004810192826200041357600085556200045f565b82601f106200042e57805160ff19168380011785556200045f565b828001600101855582156200045f579182015b828111156200045e57825182559160200191906001019062000441565b5b5090506200046e919062000472565b5090565b5b808211156200048d57600081600090555060010162000473565b5090565b6000620004a8620004a2846200071b565b620006f2565b905082815260208101848484011115620004c157600080fd5b620004ce848285620007dc565b509392505050565b600081519050620004e78162000916565b92915050565b600081519050620004fe8162000930565b92915050565b600082601f8301126200051657600080fd5b81516200052884826020860162000491565b91505092915050565b60008151905062000542816200094a565b92915050565b600080600080600060a086880312156200056157600080fd5b600086015167ffffffffffffffff8111156200057c57600080fd5b6200058a8882890162000504565b955050602086015167ffffffffffffffff811115620005a857600080fd5b620005b68882890162000504565b9450506040620005c988828901620004d6565b9350506060620005dc88828901620004ed565b9250506080620005ef8882890162000531565b9150509295509295909350565b620006078162000762565b82525050565b6200061881620007b4565b82525050565b60006200062d60208362000751565b91506200063a82620008ed565b602082019050919050565b6200065081620007aa565b82525050565b60006040820190506200066d6000830185620005fc565b6200067c6020830184620005fc565b9392505050565b60006080820190506200069a60008301876200060d565b620006a9602083018662000645565b620006b860408301856200060d565b620006c7606083018462000645565b95945050505050565b60006020820190508181036000830152620006eb816200061e565b9050919050565b6000620006fe62000711565b90506200070c828262000848565b919050565b6000604051905090565b600067ffffffffffffffff821115620007395762000738620008ad565b5b6200074482620008dc565b9050602081019050919050565b600082825260208201905092915050565b60006200076f826200078a565b9050919050565b6000620007838262000762565b9050919050565b600073ffffffffffffffffffffffffffffffffffffffff82169050919050565b6000819050919050565b6000620007c182620007c8565b9050919050565b6000620007d5826200078a565b9050919050565b60005b83811015620007fc578082015181840152602081019050620007df565b838111156200080c576000848401525b50505050565b600060028204905060018216806200082b57607f821691505b602082108114156200084257620008416200087e565b5b50919050565b6200085382620008dc565b810181811067ffffffffffffffff82111715620008755762000874620008ad565b5b80604052505050565b7f4e487b7100000000000000000000000000000000000000000000000000000000600052602260045260246000fd5b7f4e487b7100000000000000000000000000000000000000000000000000000000600052604160045260246000fd5b6000601f19601f8301169050919050565b7f4f776e61626c653a2063616c6c6572206973206e6f7420746865206f776e6572600082015250565b620009218162000762565b81146200092d57600080fd5b50565b6200093b8162000776565b81146200094757600080fd5b50565b6200095581620007aa565b81146200096157600080fd5b50565b6159ab80620009746000396000f3fe6080604052600436106101c25760003560e01c8063699bff80116100f757806395d89b4111610095578063c87b56dd11610064578063c87b56dd1461062f578063e985e3671461066c578063e985e9c514610697578063f2fde38b146106d4576101c2565b806395d89b41146105755780639b039da3146105a0578063a22cb465146105dd578063b88d4fde14610606576101c2565b8063715018a6116100d1578063715018a6146104df578063717949ab146104f65780637ff9b5961461051f5780638da5cb5b1461054a576101c2565b8063699bff801461044c5780636c0360eb1461047757806370a08231146104a2576101c2565b80632785f5301161016457806342966c681161013e57806342966c681461039457806351cff8d9146103bd57806355f804b3146103e65780636352211e1461040f576101c2565b80632785f5301461032657806337a037741461034f57806342842e0e1461036b576101c2565b8063095ea7b3116101a0578063095ea7b31461026c57806313f567b11461029557806318160ddd146102d257806323b872dd146102fd576101c2565b806301ffc9a7146101c757806306fdde0314610204578063081812fc1461022f575b600080fd5b3480156101d357600080fd5b506101ee60048036038101906101e991906143b9565b6106fd565b6040516101fb9190614c40565b60405180910390f35b34801561021057600080fd5b506102196107df565b6040516102269190614d1b565b60405180910390f35b34801561023b57600080fd5b50610256600480360381019061025191906144b1565b610871565b6040516102639190614b50565b60405180910390f35b34801561027857600080fd5b50610293600480360381019061028e9190614281565b6108ed565b005b3480156102a157600080fd5b506102bc60048036038101906102b79190614390565b6109f8565b6040516102c99190614fb4565b60405180910390f35b3480156102de57600080fd5b506102e7610a10565b6040516102f49190614fb4565b60405180910390f35b34801561030957600080fd5b50610324600480360381019061031f919061417b565b610a27565b005b34801561033257600080fd5b5061034d60048036038101906103489190614434565b610a37565b005b610369600480360381019061036491906142bd565b610b90565b005b34801561037757600080fd5b50610392600480360381019061038d919061417b565b611095565b005b3480156103a057600080fd5b506103bb60048036038101906103b691906144b1565b6110b5565b005b3480156103c957600080fd5b506103e460048036038101906103df919061440b565b6110c3565b005b3480156103f257600080fd5b5061040d60048036038101906104089190614470565b611335565b005b34801561041b57600080fd5b50610436600480360381019061043191906144b1565b6114ac565b6040516104439190614b50565b60405180910390f35b34801561045857600080fd5b506104616114c2565b60405161046e9190614b50565b60405180910390f35b34801561048357600080fd5b5061048c6114e8565b6040516104999190614d1b565b60405180910390f35b3480156104ae57600080fd5b506104c960048036038101906104c49190614116565b6114f7565b6040516104d69190614fb4565b60405180910390f35b3480156104eb57600080fd5b506104f46115c7565b005b34801561050257600080fd5b5061051d60048036038101906105189190614116565b61164f565b005b34801561052b57600080fd5b506105346117f7565b6040516105419190614fb4565b60405180910390f35b34801561055657600080fd5b5061055f6117fd565b60405161056c9190614b50565b60405180910390f35b34801561058157600080fd5b5061058a611827565b6040516105979190614d1b565b60405180910390f35b3480156105ac57600080fd5b506105c760048036038101906105c29190614390565b6118b9565b6040516105d49190614c40565b60405180910390f35b3480156105e957600080fd5b5061060460048036038101906105ff9190614245565b6118d9565b005b34801561061257600080fd5b5061062d600480360381019061062891906141ca565b611a51565b005b34801561063b57600080fd5b50610656600480360381019061065191906144b1565b611acd565b6040516106639190614d1b565b60405180910390f35b34801561067857600080fd5b50610681611b6c565b60405161068e9190614cbb565b60405180910390f35b3480156106a357600080fd5b506106be60048036038101906106b9919061413f565b611b92565b6040516106cb9190614c40565b60405180910390f35b3480156106e057600080fd5b506106fb60048036038101906106f69190614116565b611c26565b005b60007f80ac58cd000000000000000000000000000000000000000000000000000000007bffffffffffffffffffffffffffffffffffffffffffffffffffffffff1916827bffffffffffffffffffffffffffffffffffffffffffffffffffffffff191614806107c857507f5b5e139f000000000000000000000000000000000000000000000000000000007bffffffffffffffffffffffffffffffffffffffffffffffffffffffff1916827bffffffffffffffffffffffffffffffffffffffffffffffffffffffff1916145b806107d857506107d782611d1e565b5b9050919050565b6060600280546107ee90615330565b80601f016020809104026020016040519081016040528092919081815260200182805461081a90615330565b80156108675780601f1061083c57610100808354040283529160200191610867565b820191906000526020600020905b81548152906001019060200180831161084a57829003601f168201915b5050505050905090565b600061087c82611d88565b6108b2576040517fcf4700e400000000000000000000000000000000000000000000000000000000815260040160405180910390fd5b6006600083815260200190815260200160002060009054906101000a900473ffffffffffffffffffffffffffffffffffffffff169050919050565b60006108f8826114ac565b90508073ffffffffffffffffffffffffffffffffffffffff168373ffffffffffffffffffffffffffffffffffffffff161415610960576040517f943f7b8c00000000000000000000000000000000000000000000000000000000815260040160405180910390fd5b8073ffffffffffffffffffffffffffffffffffffffff1661097f611dd6565b73ffffffffffffffffffffffffffffffffffffffff16141580156109b157506109af816109aa611dd6565b611b92565b155b156109e8576040517fcfb3b94200000000000000000000000000000000000000000000000000000000815260040160405180910390fd5b6109f3838383611dde565b505050565b600a6020528060005260406000206000915090505481565b6000610a1a611e90565b6001546000540303905090565b610a32838383611e95565b505050565b610a3f611dd6565b73ffffffffffffffffffffffffffffffffffffffff16610a5d6117fd565b73ffffffffffffffffffffffffffffffffffffffff1614610ab3576040517f08c379a0000000000000000000000000000000000000000000000000000000008152600401610aaa90614ef4565b60405180910390fd5b6000600f60009054906101000a900473ffffffffffffffffffffffffffffffffffffffff1690506000600e54905082600e8190555083600f60006101000a81548173ffffffffffffffffffffffffffffffffffffffff021916908373ffffffffffffffffffffffffffffffffffffffff1602179055507f26c66ad60791b432b53bdc302db41307126d30fc0b446de812b21312423d04c98282600f60009054906101000a900473ffffffffffffffffffffffffffffffffffffffff16600e54604051610b829493929190614cd6565b60405180910390a150505050565b818160098282604051610ba4929190614ac1565b908152602001604051809103902060009054906101000a900460ff1615610c00576040517f08c379a0000000000000000000000000000000000000000000000000000000008152600401610bf790614f34565b60405180910390fd5b610c3e6040518060400160405280600481526020017f686568650000000000000000000000000000000000000000000000000000000081525061234b565b610c6d86604051602001610c529190614aaa565b604051602081830303815290604052805190602001206123e4565b610d0d3387604051602001610c829190614aaa565b604051602081830303815290604052805190602001203088604051602001610cad9493929190614a5c565b6040516020818303038152906040528051906020012085858080601f016020809104026020016040519081016040528093929190818152602001838380828437600081840152601f19601f8201169050808301925050505050505061247d565b610d4c576040517f08c379a0000000000000000000000000000000000000000000000000000000008152600401610d4390614e74565b60405180910390fd5b86865114610d8f576040517f08c379a0000000000000000000000000000000000000000000000000000000008152600401610d8690614d94565b60405180910390fd5b60008054905060008060008073ffffffffffffffffffffffffffffffffffffffff16600f60009054906101000a900473ffffffffffffffffffffffffffffffffffffffff1673ffffffffffffffffffffffffffffffffffffffff161415610e44578a600e54610dfe919061519f565b3414610e3f576040517f08c379a0000000000000000000000000000000000000000000000000000000008152600401610e3690614e14565b60405180910390fd5b610ee4565b60003414610e87576040517f08c379a0000000000000000000000000000000000000000000000000000000008152600401610e7e90614f94565b60405180910390fd5b610ee333308d600e54610e9a919061519f565b600f60009054906101000a900473ffffffffffffffffffffffffffffffffffffffff1673ffffffffffffffffffffffffffffffffffffffff16612589909392919063ffffffff16565b5b610eee8c8c612612565b60008490505b60005481101561104d578092508a8481518110610f3a577f4e487b7100000000000000000000000000000000000000000000000000000000600052603260045260246000fd5b602002602001015191506000801b8214158015610f7b575060001515600b600084815260200190815260200160002060009054906101000a900460ff161515145b610fba576040517f08c379a0000000000000000000000000000000000000000000000000000000008152600401610fb190614db4565b60405180910390fd5b82600a6000848152602001908152602001600020819055506001600b600084815260200190815260200160002060006101000a81548160ff021916908315150217905550838061100990615393565b94505081837f4f10fb24bf1e336dd6aee424399c66cceb2bba21700de5971c83de3441b1052160405160405180910390a3808061104590615393565b915050610ef4565b50600160098989604051611062929190614ac1565b908152602001604051809103902060006101000a81548160ff021916908315150217905550505050505050505050505050565b6110b083838360405180602001604052806000815250611a51565b505050565b6110c0816001612630565b50565b6110cb611dd6565b73ffffffffffffffffffffffffffffffffffffffff166110e96117fd565b73ffffffffffffffffffffffffffffffffffffffff161461113f576040517f08c379a000000000000000000000000000000000000000000000000000000000815260040161113690614ef4565b60405180910390fd5b60008073ffffffffffffffffffffffffffffffffffffffff168273ffffffffffffffffffffffffffffffffffffffff16141561122a5747905060003373ffffffffffffffffffffffffffffffffffffffff168260405161119e90614b3b565b60006040518083038185875af1925050503d80600081146111db576040519150601f19603f3d011682016040523d82523d6000602084013e6111e0565b606091505b5050905080611224576040517f08c379a000000000000000000000000000000000000000000000000000000000815260040161121b90614f14565b60405180910390fd5b506112e1565b8173ffffffffffffffffffffffffffffffffffffffff166370a08231306040518263ffffffff1660e01b81526004016112639190614b50565b60206040518083038186803b15801561127b57600080fd5b505afa15801561128f573d6000803e3d6000fd5b505050506040513d601f19601f820116820180604052508101906112b391906144da565b90506112e033828473ffffffffffffffffffffffffffffffffffffffff16612a209092919063ffffffff16565b5b3373ffffffffffffffffffffffffffffffffffffffff167f9b1bfa7fa9ee420a16e124f794c35ac9f90472acc99140eb2f6447c714cad8eb8383604051611329929190614c17565b60405180910390a25050565b61133d611dd6565b73ffffffffffffffffffffffffffffffffffffffff1661135b6117fd565b73ffffffffffffffffffffffffffffffffffffffff16146113b1576040517f08c379a00000000000000000000000000000000000000000000000000000000081526004016113a890614ef4565b60405180910390fd5b6000600d80546113c090615330565b80601f01602080910402602001604051908101604052809291908181526020018280546113ec90615330565b80156114395780601f1061140e57610100808354040283529160200191611439565b820191906000526020600020905b81548152906001019060200180831161141c57829003601f168201915b5050505050905081600d9080519060200190611456929190613dc3565b503373ffffffffffffffffffffffffffffffffffffffff167f1583e02b0b2a79149e9152563c00c240bf33e5291f9c5337a03c013d74e177dd82600d6040516114a0929190614d3d565b60405180910390a25050565b60006114b782612aa6565b600001519050919050565b600c60009054906101000a900473ffffffffffffffffffffffffffffffffffffffff1681565b60606114f2612d35565b905090565b60008073ffffffffffffffffffffffffffffffffffffffff168273ffffffffffffffffffffffffffffffffffffffff16141561155f576040517f8f4eb60400000000000000000000000000000000000000000000000000000000815260040160405180910390fd5b600560008373ffffffffffffffffffffffffffffffffffffffff1673ffffffffffffffffffffffffffffffffffffffff16815260200190815260200160002060000160009054906101000a900467ffffffffffffffff1667ffffffffffffffff169050919050565b6115cf611dd6565b73ffffffffffffffffffffffffffffffffffffffff166115ed6117fd565b73ffffffffffffffffffffffffffffffffffffffff1614611643576040517f08c379a000000000000000000000000000000000000000000000000000000000815260040161163a90614ef4565b60405180910390fd5b61164d6000612dc7565b565b611657611dd6565b73ffffffffffffffffffffffffffffffffffffffff166116756117fd565b73ffffffffffffffffffffffffffffffffffffffff16146116cb576040517f08c379a00000000000000000000000000000000000000000000000000000000081526004016116c290614ef4565b60405180910390fd5b600073ffffffffffffffffffffffffffffffffffffffff168173ffffffffffffffffffffffffffffffffffffffff16141561173b576040517f08c379a000000000000000000000000000000000000000000000000000000000815260040161173290614e54565b60405180910390fd5b6000600c60009054906101000a900473ffffffffffffffffffffffffffffffffffffffff16905081600c60006101000a81548173ffffffffffffffffffffffffffffffffffffffff021916908373ffffffffffffffffffffffffffffffffffffffff1602179055503373ffffffffffffffffffffffffffffffffffffffff167f2a1c126daaa5a808c12b7dc0e4a2d384d7a506dc888299a8940fc569444c4aeb82846040516117eb929190614b6b565b60405180910390a25050565b600e5481565b6000600860009054906101000a900473ffffffffffffffffffffffffffffffffffffffff16905090565b60606003805461183690615330565b80601f016020809104026020016040519081016040528092919081815260200182805461186290615330565b80156118af5780601f10611884576101008083540402835291602001916118af565b820191906000526020600020905b81548152906001019060200180831161189257829003601f168201915b5050505050905090565b600b6020528060005260406000206000915054906101000a900460ff1681565b6118e1611dd6565b73ffffffffffffffffffffffffffffffffffffffff168273ffffffffffffffffffffffffffffffffffffffff161415611946576040517fb06307db00000000000000000000000000000000000000000000000000000000815260040160405180910390fd5b8060076000611953611dd6565b73ffffffffffffffffffffffffffffffffffffffff1673ffffffffffffffffffffffffffffffffffffffff16815260200190815260200160002060008473ffffffffffffffffffffffffffffffffffffffff1673ffffffffffffffffffffffffffffffffffffffff16815260200190815260200160002060006101000a81548160ff0219169083151502179055508173ffffffffffffffffffffffffffffffffffffffff16611a00611dd6565b73ffffffffffffffffffffffffffffffffffffffff167f17307eab39ab6107e8899845ad3d59bd9653f200f220920489ca2b5937696c3183604051611a459190614c40565b60405180910390a35050565b611a5c848484611e95565b611a7b8373ffffffffffffffffffffffffffffffffffffffff16612e8d565b8015611a905750611a8e84848484612eb0565b155b15611ac7576040517fd1a57ed600000000000000000000000000000000000000000000000000000000815260040160405180910390fd5b50505050565b6060611ad882611d88565b611b0e576040517fa14c4b5000000000000000000000000000000000000000000000000000000000815260040160405180910390fd5b6000611b18612d35565b9050600081511415611b395760405180602001604052806000815250611b64565b80611b4384613010565b604051602001611b54929190614af1565b6040516020818303038152906040525b915050919050565b600f60009054906101000a900473ffffffffffffffffffffffffffffffffffffffff1681565b6000600760008473ffffffffffffffffffffffffffffffffffffffff1673ffffffffffffffffffffffffffffffffffffffff16815260200190815260200160002060008373ffffffffffffffffffffffffffffffffffffffff1673ffffffffffffffffffffffffffffffffffffffff16815260200190815260200160002060009054906101000a900460ff16905092915050565b611c2e611dd6565b73ffffffffffffffffffffffffffffffffffffffff16611c4c6117fd565b73ffffffffffffffffffffffffffffffffffffffff1614611ca2576040517f08c379a0000000000000000000000000000000000000000000000000000000008152600401611c9990614ef4565b60405180910390fd5b600073ffffffffffffffffffffffffffffffffffffffff168173ffffffffffffffffffffffffffffffffffffffff161415611d12576040517f08c379a0000000000000000000000000000000000000000000000000000000008152600401611d0990614e34565b60405180910390fd5b611d1b81612dc7565b50565b60007f01ffc9a7000000000000000000000000000000000000000000000000000000007bffffffffffffffffffffffffffffffffffffffffffffffffffffffff1916827bffffffffffffffffffffffffffffffffffffffffffffffffffffffff1916149050919050565b600081611d93611e90565b11158015611da2575060005482105b8015611dcf575060046000838152602001908152602001600020600001601c9054906101000a900460ff16155b9050919050565b600033905090565b826006600084815260200190815260200160002060006101000a81548173ffffffffffffffffffffffffffffffffffffffff021916908373ffffffffffffffffffffffffffffffffffffffff160217905550818373ffffffffffffffffffffffffffffffffffffffff168273ffffffffffffffffffffffffffffffffffffffff167f8c5be1e5ebec7d5bd14f71427d1e84f3dd0314c0f7b2291e5b200ac8c7c3b92560405160405180910390a4505050565b600090565b6000611ea082612aa6565b90508373ffffffffffffffffffffffffffffffffffffffff16816000015173ffffffffffffffffffffffffffffffffffffffff1614611f0b576040517fa114810000000000000000000000000000000000000000000000000000000000815260040160405180910390fd5b60008473ffffffffffffffffffffffffffffffffffffffff16611f2c611dd6565b73ffffffffffffffffffffffffffffffffffffffff161480611f5b5750611f5a85611f55611dd6565b611b92565b5b80611fa05750611f69611dd6565b73ffffffffffffffffffffffffffffffffffffffff16611f8884610871565b73ffffffffffffffffffffffffffffffffffffffff16145b905080611fd9576040517f59c896be00000000000000000000000000000000000000000000000000000000815260040160405180910390fd5b600073ffffffffffffffffffffffffffffffffffffffff168473ffffffffffffffffffffffffffffffffffffffff161415612040576040517fea553b3400000000000000000000000000000000000000000000000000000000815260040160405180910390fd5b61204d85858560016131bd565b61205960008487611dde565b6001600560008773ffffffffffffffffffffffffffffffffffffffff1673ffffffffffffffffffffffffffffffffffffffff16815260200190815260200160002060000160008282829054906101000a900467ffffffffffffffff160392506101000a81548167ffffffffffffffff021916908367ffffffffffffffff1602179055506001600560008673ffffffffffffffffffffffffffffffffffffffff1673ffffffffffffffffffffffffffffffffffffffff16815260200190815260200160002060000160008282829054906101000a900467ffffffffffffffff160192506101000a81548167ffffffffffffffff021916908367ffffffffffffffff1602179055506000600460008581526020019081526020016000209050848160000160006101000a81548173ffffffffffffffffffffffffffffffffffffffff021916908373ffffffffffffffffffffffffffffffffffffffff160217905550428160000160146101000a81548167ffffffffffffffff021916908367ffffffffffffffff16021790555060006001850190506000600460008381526020019081526020016000209050600073ffffffffffffffffffffffffffffffffffffffff168160000160009054906101000a900473ffffffffffffffffffffffffffffffffffffffff1673ffffffffffffffffffffffffffffffffffffffff1614156122d95760005482146122d857878160000160006101000a81548173ffffffffffffffffffffffffffffffffffffffff021916908373ffffffffffffffffffffffffffffffffffffffff16021790555084602001518160000160146101000a81548167ffffffffffffffff021916908367ffffffffffffffff1602179055505b5b505050828473ffffffffffffffffffffffffffffffffffffffff168673ffffffffffffffffffffffffffffffffffffffff167fddf252ad1be2c89b69c2b068fc378daa952ba7f163c4a11628f55a4df523b3ef60405160405180910390a461234485858560016131c3565b5050505050565b6123e18160405160240161235f9190614d1b565b6040516020818303038152906040527f41304fac000000000000000000000000000000000000000000000000000000007bffffffffffffffffffffffffffffffffffffffffffffffffffffffff19166020820180517bffffffffffffffffffffffffffffffffffffffffffffffffffffffff83818316178352505050506131c9565b50565b61247a816040516024016123f89190614c5b565b6040516020818303038152906040527f27b7cf85000000000000000000000000000000000000000000000000000000007bffffffffffffffffffffffffffffffffffffffffffffffffffffffff19166020820180517bffffffffffffffffffffffffffffffffffffffffffffffffffffffff83818316178352505050506131c9565b50565b60008073ffffffffffffffffffffffffffffffffffffffff16600c60009054906101000a900473ffffffffffffffffffffffffffffffffffffffff1673ffffffffffffffffffffffffffffffffffffffff161415612510576040517f08c379a000000000000000000000000000000000000000000000000000000000815260040161250790614dd4565b60405180910390fd5b600061251b846131f2565b9050600c60009054906101000a900473ffffffffffffffffffffffffffffffffffffffff1673ffffffffffffffffffffffffffffffffffffffff16612569848361322290919063ffffffff16565b73ffffffffffffffffffffffffffffffffffffffff161491505092915050565b61260c846323b872dd60e01b8585856040516024016125aa93929190614b94565b604051602081830303815290604052907bffffffffffffffffffffffffffffffffffffffffffffffffffffffff19166020820180517bffffffffffffffffffffffffffffffffffffffffffffffffffffffff8381831617835250505050613249565b50505050565b61262c828260405180602001604052806000815250613310565b5050565b600061263b83612aa6565b9050600081600001519050821561271c5760008173ffffffffffffffffffffffffffffffffffffffff1661266d611dd6565b73ffffffffffffffffffffffffffffffffffffffff16148061269c575061269b82612696611dd6565b611b92565b5b806126e157506126aa611dd6565b73ffffffffffffffffffffffffffffffffffffffff166126c986610871565b73ffffffffffffffffffffffffffffffffffffffff16145b90508061271a576040517f59c896be00000000000000000000000000000000000000000000000000000000815260040160405180910390fd5b505b61272a8160008660016131bd565b61273660008583611dde565b6000600560008373ffffffffffffffffffffffffffffffffffffffff1673ffffffffffffffffffffffffffffffffffffffff168152602001908152602001600020905060018160000160008282829054906101000a900467ffffffffffffffff160392506101000a81548167ffffffffffffffff021916908367ffffffffffffffff16021790555060018160000160108282829054906101000a900467ffffffffffffffff160192506101000a81548167ffffffffffffffff021916908367ffffffffffffffff1602179055506000600460008781526020019081526020016000209050828160000160006101000a81548173ffffffffffffffffffffffffffffffffffffffff021916908373ffffffffffffffffffffffffffffffffffffffff160217905550428160000160146101000a81548167ffffffffffffffff021916908367ffffffffffffffff160217905550600181600001601c6101000a81548160ff02191690831515021790555060006001870190506000600460008381526020019081526020016000209050600073ffffffffffffffffffffffffffffffffffffffff168160000160009054906101000a900473ffffffffffffffffffffffffffffffffffffffff1673ffffffffffffffffffffffffffffffffffffffff16141561299a57600054821461299957848160000160006101000a81548173ffffffffffffffffffffffffffffffffffffffff021916908373ffffffffffffffffffffffffffffffffffffffff16021790555085602001518160000160146101000a81548167ffffffffffffffff021916908367ffffffffffffffff1602179055505b5b5050505083600073ffffffffffffffffffffffffffffffffffffffff168273ffffffffffffffffffffffffffffffffffffffff167fddf252ad1be2c89b69c2b068fc378daa952ba7f163c4a11628f55a4df523b3ef60405160405180910390a4612a088160008660016131c3565b60016000815480929190600101919050555050505050565b612aa18363a9059cbb60e01b8484604051602401612a3f929190614c17565b604051602081830303815290604052907bffffffffffffffffffffffffffffffffffffffffffffffffffffffff19166020820180517bffffffffffffffffffffffffffffffffffffffffffffffffffffffff8381831617835250505050613249565b505050565b612aae613e49565b600082905080612abc611e90565b11158015612acb575060005481105b15612cfe576000600460008381526020019081526020016000206040518060600160405290816000820160009054906101000a900473ffffffffffffffffffffffffffffffffffffffff1673ffffffffffffffffffffffffffffffffffffffff1673ffffffffffffffffffffffffffffffffffffffff1681526020016000820160149054906101000a900467ffffffffffffffff1667ffffffffffffffff1667ffffffffffffffff16815260200160008201601c9054906101000a900460ff16151515158152505090508060400151612cfc57600073ffffffffffffffffffffffffffffffffffffffff16816000015173ffffffffffffffffffffffffffffffffffffffff1614612be0578092505050612d30565b5b600115612cfb57818060019003925050600460008381526020019081526020016000206040518060600160405290816000820160009054906101000a900473ffffffffffffffffffffffffffffffffffffffff1673ffffffffffffffffffffffffffffffffffffffff1673ffffffffffffffffffffffffffffffffffffffff1681526020016000820160149054906101000a900467ffffffffffffffff1667ffffffffffffffff1667ffffffffffffffff16815260200160008201601c9054906101000a900460ff1615151515815250509050600073ffffffffffffffffffffffffffffffffffffffff16816000015173ffffffffffffffffffffffffffffffffffffffff1614612cf6578092505050612d30565b612be1565b5b505b6040517fdf2d9b4200000000000000000000000000000000000000000000000000000000815260040160405180910390fd5b919050565b6060600d8054612d4490615330565b80601f0160208091040260200160405190810160405280929190818152602001828054612d7090615330565b8015612dbd5780601f10612d9257610100808354040283529160200191612dbd565b820191906000526020600020905b815481529060010190602001808311612da057829003601f168201915b5050505050905090565b6000600860009054906101000a900473ffffffffffffffffffffffffffffffffffffffff16905081600860006101000a81548173ffffffffffffffffffffffffffffffffffffffff021916908373ffffffffffffffffffffffffffffffffffffffff1602179055508173ffffffffffffffffffffffffffffffffffffffff168173ffffffffffffffffffffffffffffffffffffffff167f8be0079c531659141344cd1fd0a4f28419497f9722a3daafe3b4186f6b6457e060405160405180910390a35050565b6000808273ffffffffffffffffffffffffffffffffffffffff163b119050919050565b60008373ffffffffffffffffffffffffffffffffffffffff1663150b7a02612ed6611dd6565b8786866040518563ffffffff1660e01b8152600401612ef89493929190614bcb565b602060405180830381600087803b158015612f1257600080fd5b505af1925050508015612f4357506040513d601f19601f82011682018060405250810190612f4091906143e2565b60015b612fbd573d8060008114612f73576040519150601f19603f3d011682016040523d82523d6000602084013e612f78565b606091505b50600081511415612fb5576040517fd1a57ed600000000000000000000000000000000000000000000000000000000815260040160405180910390fd5b805181602001fd5b63150b7a0260e01b7bffffffffffffffffffffffffffffffffffffffffffffffffffffffff1916817bffffffffffffffffffffffffffffffffffffffffffffffffffffffff191614915050949350505050565b60606000821415613058576040518060400160405280600181526020017f300000000000000000000000000000000000000000000000000000000000000081525090506131b8565b600082905060005b6000821461308a57808061307390615393565b915050600a82613083919061516e565b9150613060565b60008167ffffffffffffffff8111156130cc577f4e487b7100000000000000000000000000000000000000000000000000000000600052604160045260246000fd5b6040519080825280601f01601f1916602001820160405280156130fe5781602001600182028036833780820191505090505b5090505b600085146131b15760018261311791906151f9565b9150600a856131269190615414565b60306131329190615118565b60f81b81838151811061316e577f4e487b7100000000000000000000000000000000000000000000000000000000600052603260045260246000fd5b60200101907effffffffffffffffffffffffffffffffffffffffffffffffffffffffffffff1916908160001a905350600a856131aa919061516e565b9450613102565b8093505050505b919050565b50505050565b50505050565b60008151905060006a636f6e736f6c652e6c6f679050602083016000808483855afa5050505050565b6000816040516020016132059190614b15565b604051602081830303815290604052805190602001209050919050565b60008060006132318585613322565b9150915061323e816133a5565b819250505092915050565b60006132ab826040518060400160405280602081526020017f5361666545524332303a206c6f772d6c6576656c2063616c6c206661696c65648152508573ffffffffffffffffffffffffffffffffffffffff166136f69092919063ffffffff16565b905060008151111561330b57808060200190518101906132cb9190614367565b61330a576040517f08c379a000000000000000000000000000000000000000000000000000000000815260040161330190614f74565b60405180910390fd5b5b505050565b61331d838383600161370e565b505050565b6000806041835114156133645760008060006020860151925060408601519150606086015160001a905061335887828585613adc565b9450945050505061339e565b60408351141561339557600080602085015191506040850151905061338a868383613be9565b93509350505061339e565b60006002915091505b9250929050565b600060048111156133df577f4e487b7100000000000000000000000000000000000000000000000000000000600052602160045260246000fd5b816004811115613418577f4e487b7100000000000000000000000000000000000000000000000000000000600052602160045260246000fd5b1415613423576136f3565b6001600481111561345d577f4e487b7100000000000000000000000000000000000000000000000000000000600052602160045260246000fd5b816004811115613496577f4e487b7100000000000000000000000000000000000000000000000000000000600052602160045260246000fd5b14156134d7576040517f08c379a00000000000000000000000000000000000000000000000000000000081526004016134ce90614d74565b60405180910390fd5b60026004811115613511577f4e487b7100000000000000000000000000000000000000000000000000000000600052602160045260246000fd5b81600481111561354a577f4e487b7100000000000000000000000000000000000000000000000000000000600052602160045260246000fd5b141561358b576040517f08c379a000000000000000000000000000000000000000000000000000000000815260040161358290614df4565b60405180910390fd5b600360048111156135c5577f4e487b7100000000000000000000000000000000000000000000000000000000600052602160045260246000fd5b8160048111156135fe577f4e487b7100000000000000000000000000000000000000000000000000000000600052602160045260246000fd5b141561363f576040517f08c379a000000000000000000000000000000000000000000000000000000000815260040161363690614e94565b60405180910390fd5b600480811115613678577f4e487b7100000000000000000000000000000000000000000000000000000000600052602160045260246000fd5b8160048111156136b1577f4e487b7100000000000000000000000000000000000000000000000000000000600052602160045260246000fd5b14156136f2576040517f08c379a00000000000000000000000000000000000000000000000000000000081526004016136e990614ed4565b60405180910390fd5b5b50565b60606137058484600085613c48565b90509392505050565b600080549050600073ffffffffffffffffffffffffffffffffffffffff168573ffffffffffffffffffffffffffffffffffffffff16141561377b576040517f2e07630000000000000000000000000000000000000000000000000000000000815260040160405180910390fd5b60008414156137b6576040517fb562e8dd00000000000000000000000000000000000000000000000000000000815260040160405180910390fd5b6137c360008683876131bd565b83600560008773ffffffffffffffffffffffffffffffffffffffff1673ffffffffffffffffffffffffffffffffffffffff16815260200190815260200160002060000160008282829054906101000a900467ffffffffffffffff160192506101000a81548167ffffffffffffffff021916908367ffffffffffffffff16021790555083600560008773ffffffffffffffffffffffffffffffffffffffff1673ffffffffffffffffffffffffffffffffffffffff16815260200190815260200160002060000160088282829054906101000a900467ffffffffffffffff160192506101000a81548167ffffffffffffffff021916908367ffffffffffffffff160217905550846004600083815260200190815260200160002060000160006101000a81548173ffffffffffffffffffffffffffffffffffffffff021916908373ffffffffffffffffffffffffffffffffffffffff160217905550426004600083815260200190815260200160002060000160146101000a81548167ffffffffffffffff021916908367ffffffffffffffff16021790555060008190506000858201905083801561398d575061398c8773ffffffffffffffffffffffffffffffffffffffff16612e8d565b5b15613a53575b818773ffffffffffffffffffffffffffffffffffffffff16600073ffffffffffffffffffffffffffffffffffffffff167fddf252ad1be2c89b69c2b068fc378daa952ba7f163c4a11628f55a4df523b3ef60405160405180910390a4613a026000888480600101955088612eb0565b613a38576040517fd1a57ed600000000000000000000000000000000000000000000000000000000815260040160405180910390fd5b80821415613993578260005414613a4e57600080fd5b613abf565b5b818060010192508773ffffffffffffffffffffffffffffffffffffffff16600073ffffffffffffffffffffffffffffffffffffffff167fddf252ad1be2c89b69c2b068fc378daa952ba7f163c4a11628f55a4df523b3ef60405160405180910390a480821415613a54575b816000819055505050613ad560008683876131c3565b5050505050565b6000807f7fffffffffffffffffffffffffffffff5d576e7357a4501ddfe92f46681b20a08360001c1115613b17576000600391509150613be0565b601b8560ff1614158015613b2f5750601c8560ff1614155b15613b41576000600491509150613be0565b600060018787878760405160008152602001604052604051613b669493929190614c76565b6020604051602081039080840390855afa158015613b88573d6000803e3d6000fd5b505050602060405103519050600073ffffffffffffffffffffffffffffffffffffffff168173ffffffffffffffffffffffffffffffffffffffff161415613bd757600060019250925050613be0565b80600092509250505b94509492505050565b60008060007f7fffffffffffffffffffffffffffffffffffffffffffffffffffffffffffffff60001b841690506000601b60ff8660001c901c613c2c9190615118565b9050613c3a87828885613adc565b935093505050935093915050565b606082471015613c8d576040517f08c379a0000000000000000000000000000000000000000000000000000000008152600401613c8490614eb4565b60405180910390fd5b613c9685612e8d565b613cd5576040517f08c379a0000000000000000000000000000000000000000000000000000000008152600401613ccc90614f54565b60405180910390fd5b6000808673ffffffffffffffffffffffffffffffffffffffff168587604051613cfe9190614ada565b60006040518083038185875af1925050503d8060008114613d3b576040519150601f19603f3d011682016040523d82523d6000602084013e613d40565b606091505b5091509150613d50828286613d5c565b92505050949350505050565b60608315613d6c57829050613dbc565b600083511115613d7f5782518084602001fd5b816040517f08c379a0000000000000000000000000000000000000000000000000000000008152600401613db39190614d1b565b60405180910390fd5b9392505050565b828054613dcf90615330565b90600052602060002090601f016020900481019282613df15760008555613e38565b82601f10613e0a57805160ff1916838001178555613e38565b82800160010185558215613e38579182015b82811115613e37578251825591602001919060010190613e1c565b5b509050613e459190613e8c565b5090565b6040518060600160405280600073ffffffffffffffffffffffffffffffffffffffff168152602001600067ffffffffffffffff1681526020016000151581525090565b5b80821115613ea5576000816000905550600101613e8d565b5090565b6000613ebc613eb784614ff4565b614fcf565b90508083825260208201905082856020860282011115613edb57600080fd5b60005b85811015613f0b5781613ef18882613ffa565b845260208401935060208301925050600181019050613ede565b5050509392505050565b6000613f28613f2384615020565b614fcf565b905082815260208101848484011115613f4057600080fd5b613f4b8482856152ee565b509392505050565b6000613f66613f6184615051565b614fcf565b905082815260208101848484011115613f7e57600080fd5b613f898482856152ee565b509392505050565b600081359050613fa0816158eb565b92915050565b600082601f830112613fb757600080fd5b8135613fc7848260208601613ea9565b91505092915050565b600081359050613fdf81615902565b92915050565b600081519050613ff481615902565b92915050565b60008135905061400981615919565b92915050565b60008135905061401e81615930565b92915050565b60008151905061403381615930565b92915050565b60008083601f84011261404b57600080fd5b8235905067ffffffffffffffff81111561406457600080fd5b60208301915083600182028301111561407c57600080fd5b9250929050565b600082601f83011261409457600080fd5b81356140a4848260208601613f15565b91505092915050565b6000813590506140bc81615947565b92915050565b600082601f8301126140d357600080fd5b81356140e3848260208601613f53565b91505092915050565b6000813590506140fb8161595e565b92915050565b6000815190506141108161595e565b92915050565b60006020828403121561412857600080fd5b600061413684828501613f91565b91505092915050565b6000806040838503121561415257600080fd5b600061416085828601613f91565b925050602061417185828601613f91565b9150509250929050565b60008060006060848603121561419057600080fd5b600061419e86828701613f91565b93505060206141af86828701613f91565b92505060406141c0868287016140ec565b9150509250925092565b600080600080608085870312156141e057600080fd5b60006141ee87828801613f91565b94505060206141ff87828801613f91565b9350506040614210878288016140ec565b925050606085013567ffffffffffffffff81111561422d57600080fd5b61423987828801614083565b91505092959194509250565b6000806040838503121561425857600080fd5b600061426685828601613f91565b925050602061427785828601613fd0565b9150509250929050565b6000806040838503121561429457600080fd5b60006142a285828601613f91565b92505060206142b3858286016140ec565b9150509250929050565b60008060008060008060a087890312156142d657600080fd5b60006142e489828a01613f91565b96505060206142f589828a016140ec565b955050604087013567ffffffffffffffff81111561431257600080fd5b61431e89828a01613fa6565b945050606061432f89828a016140ec565b935050608087013567ffffffffffffffff81111561434c57600080fd5b61435889828a01614039565b92509250509295509295509295565b60006020828403121561437957600080fd5b600061438784828501613fe5565b91505092915050565b6000602082840312156143a257600080fd5b60006143b084828501613ffa565b91505092915050565b6000602082840312156143cb57600080fd5b60006143d98482850161400f565b91505092915050565b6000602082840312156143f457600080fd5b600061440284828501614024565b91505092915050565b60006020828403121561441d57600080fd5b600061442b848285016140ad565b91505092915050565b6000806040838503121561444757600080fd5b6000614455858286016140ad565b9250506020614466858286016140ec565b9150509250929050565b60006020828403121561448257600080fd5b600082013567ffffffffffffffff81111561449c57600080fd5b6144a8848285016140c2565b91505092915050565b6000602082840312156144c357600080fd5b60006144d1848285016140ec565b91505092915050565b6000602082840312156144ec57600080fd5b60006144fa84828501614101565b91505092915050565b600061450f83836145bd565b60208301905092915050565b6145248161522d565b82525050565b61453b6145368261522d565b6153dc565b82525050565b600061454c826150a7565b61455681856150d5565b935061456183615082565b8060005b838110156145925781516145798882614503565b9750614584836150c8565b925050600181019050614565565b5085935050505092915050565b6145a88161523f565b82525050565b6145b78161524b565b82525050565b6145c68161524b565b82525050565b6145dd6145d88261524b565b6153ee565b82525050565b60006145ef83856150f1565b93506145fc8385846152ee565b82840190509392505050565b6000614613826150b2565b61461d81856150e0565b935061462d8185602086016152fd565b61463681615501565b840191505092915050565b600061464c826150b2565b61465681856150f1565b93506146668185602086016152fd565b80840191505092915050565b61467b816152ca565b82525050565b600061468c826150bd565b61469681856150fc565b93506146a68185602086016152fd565b6146af81615501565b840191505092915050565b60006146c5826150bd565b6146cf818561510d565b93506146df8185602086016152fd565b80840191505092915050565b600081546146f881615330565b61470281866150fc565b9450600182166000811461471d576001811461472f57614762565b60ff1983168652602086019350614762565b61473885615092565b60005b8381101561475a5781548189015260018201915060208101905061473b565b808801955050505b50505092915050565b60006147786018836150fc565b91506147838261551f565b602082019050919050565b600061479b601d836150fc565b91506147a682615548565b602082019050919050565b60006147be6013836150fc565b91506147c982615571565b602082019050919050565b60006147e16013836150fc565b91506147ec8261559a565b602082019050919050565b6000614804601f836150fc565b915061480f826155c3565b602082019050919050565b6000614827601c8361510d565b9150614832826155ec565b601c82019050919050565b600061484a601a836150fc565b915061485582615615565b602082019050919050565b600061486d6026836150fc565b91506148788261563e565b604082019050919050565b60006148906010836150fc565b915061489b8261568d565b602082019050919050565b60006148b36011836150fc565b91506148be826156b6565b602082019050919050565b60006148d66022836150fc565b91506148e1826156df565b604082019050919050565b60006148f96026836150fc565b91506149048261572e565b604082019050919050565b600061491c6022836150fc565b91506149278261577d565b604082019050919050565b600061493f6020836150fc565b915061494a826157cc565b602082019050919050565b60006149626018836150fc565b915061496d826157f5565b602082019050919050565b60006149856000836150f1565b91506149908261581e565b600082019050919050565b60006149a86017836150fc565b91506149b382615821565b602082019050919050565b60006149cb601d836150fc565b91506149d68261584a565b602082019050919050565b60006149ee602a836150fc565b91506149f982615873565b604082019050919050565b6000614a11600f836150fc565b9150614a1c826158c2565b602082019050919050565b614a30816152b3565b82525050565b614a47614a42826152b3565b61540a565b82525050565b614a56816152bd565b82525050565b6000614a68828761452a565b601482019150614a7882866145cc565b602082019150614a88828561452a565b601482019150614a988284614a36565b60208201915081905095945050505050565b6000614ab68284614541565b915081905092915050565b6000614ace8284866145e3565b91508190509392505050565b6000614ae68284614641565b915081905092915050565b6000614afd82856146ba565b9150614b0982846146ba565b91508190509392505050565b6000614b208261481a565b9150614b2c82846145cc565b60208201915081905092915050565b6000614b4682614978565b9150819050919050565b6000602082019050614b65600083018461451b565b92915050565b6000604082019050614b80600083018561451b565b614b8d602083018461451b565b9392505050565b6000606082019050614ba9600083018661451b565b614bb6602083018561451b565b614bc36040830184614a27565b949350505050565b6000608082019050614be0600083018761451b565b614bed602083018661451b565b614bfa6040830185614a27565b8181036060830152614c0c8184614608565b905095945050505050565b6000604082019050614c2c600083018561451b565b614c396020830184614a27565b9392505050565b6000602082019050614c55600083018461459f565b92915050565b6000602082019050614c7060008301846145ae565b92915050565b6000608082019050614c8b60008301876145ae565b614c986020830186614a4d565b614ca560408301856145ae565b614cb260608301846145ae565b95945050505050565b6000602082019050614cd06000830184614672565b92915050565b6000608082019050614ceb6000830187614672565b614cf86020830186614a27565b614d056040830185614672565b614d126060830184614a27565b95945050505050565b60006020820190508181036000830152614d358184614681565b905092915050565b60006040820190508181036000830152614d578185614681565b90508181036020830152614d6b81846146eb565b90509392505050565b60006020820190508181036000830152614d8d8161476b565b9050919050565b60006020820190508181036000830152614dad8161478e565b9050919050565b60006020820190508181036000830152614dcd816147b1565b9050919050565b60006020820190508181036000830152614ded816147d4565b9050919050565b60006020820190508181036000830152614e0d816147f7565b9050919050565b60006020820190508181036000830152614e2d8161483d565b9050919050565b60006020820190508181036000830152614e4d81614860565b9050919050565b60006020820190508181036000830152614e6d81614883565b9050919050565b60006020820190508181036000830152614e8d816148a6565b9050919050565b60006020820190508181036000830152614ead816148c9565b9050919050565b60006020820190508181036000830152614ecd816148ec565b9050919050565b60006020820190508181036000830152614eed8161490f565b9050919050565b60006020820190508181036000830152614f0d81614932565b9050919050565b60006020820190508181036000830152614f2d81614955565b9050919050565b60006020820190508181036000830152614f4d8161499b565b9050919050565b60006020820190508181036000830152614f6d816149be565b9050919050565b60006020820190508181036000830152614f8d816149e1565b9050919050565b60006020820190508181036000830152614fad81614a04565b9050919050565b6000602082019050614fc96000830184614a27565b92915050565b6000614fd9614fea565b9050614fe58282615362565b919050565b6000604051905090565b600067ffffffffffffffff82111561500f5761500e6154d2565b5b602082029050602081019050919050565b600067ffffffffffffffff82111561503b5761503a6154d2565b5b61504482615501565b9050602081019050919050565b600067ffffffffffffffff82111561506c5761506b6154d2565b5b61507582615501565b9050602081019050919050565b6000819050602082019050919050565b60008190508160005260206000209050919050565b600081519050919050565b600081519050919050565b600081519050919050565b6000602082019050919050565b600081905092915050565b600082825260208201905092915050565b600081905092915050565b600082825260208201905092915050565b600081905092915050565b6000615123826152b3565b915061512e836152b3565b9250827fffffffffffffffffffffffffffffffffffffffffffffffffffffffffffffffff0382111561516357615162615445565b5b828201905092915050565b6000615179826152b3565b9150615184836152b3565b92508261519457615193615474565b5b828204905092915050565b60006151aa826152b3565b91506151b5836152b3565b9250817fffffffffffffffffffffffffffffffffffffffffffffffffffffffffffffffff04831182151516156151ee576151ed615445565b5b828202905092915050565b6000615204826152b3565b915061520f836152b3565b92508282101561522257615221615445565b5b828203905092915050565b600061523882615293565b9050919050565b60008115159050919050565b6000819050919050565b60007fffffffff0000000000000000000000000000000000000000000000000000000082169050919050565b600061528c8261522d565b9050919050565b600073ffffffffffffffffffffffffffffffffffffffff82169050919050565b6000819050919050565b600060ff82169050919050565b60006152d5826152dc565b9050919050565b60006152e782615293565b9050919050565b82818337600083830152505050565b60005b8381101561531b578082015181840152602081019050615300565b8381111561532a576000848401525b50505050565b6000600282049050600182168061534857607f821691505b6020821081141561535c5761535b6154a3565b5b50919050565b61536b82615501565b810181811067ffffffffffffffff8211171561538a576153896154d2565b5b80604052505050565b600061539e826152b3565b91507fffffffffffffffffffffffffffffffffffffffffffffffffffffffffffffffff8214156153d1576153d0615445565b5b600182019050919050565b60006153e7826153f8565b9050919050565b6000819050919050565b600061540382615512565b9050919050565b6000819050919050565b600061541f826152b3565b915061542a836152b3565b92508261543a57615439615474565b5b828206905092915050565b7f4e487b7100000000000000000000000000000000000000000000000000000000600052601160045260246000fd5b7f4e487b7100000000000000000000000000000000000000000000000000000000600052601260045260246000fd5b7f4e487b7100000000000000000000000000000000000000000000000000000000600052602260045260246000fd5b7f4e487b7100000000000000000000000000000000000000000000000000000000600052604160045260246000fd5b6000601f19601f8301169050919050565b60008160601b9050919050565b7f45434453413a20696e76616c6964207369676e61747572650000000000000000600082015250565b7f4552525f4d4953534d415443485f434f554e545f544f54414c4d494e54000000600082015250565b7f494e56414c49445f45585445524e414c5f494400000000000000000000000000600082015250565b7f496e76616c6964207369676e6572206164647200000000000000000000000000600082015250565b7f45434453413a20696e76616c6964207369676e6174757265206c656e67746800600082015250565b7f19457468657265756d205369676e6564204d6573736167653a0a333200000000600082015250565b7f496e76616c69642065746820666f722070757263686173696e67000000000000600082015250565b7f4f776e61626c653a206e6577206f776e657220697320746865207a65726f206160008201527f6464726573730000000000000000000000000000000000000000000000000000602082015250565b7f4552525f5a45524f5f4144445245535300000000000000000000000000000000600082015250565b7f496e76616c6964207369676e6174757265000000000000000000000000000000600082015250565b7f45434453413a20696e76616c6964207369676e6174757265202773272076616c60008201527f7565000000000000000000000000000000000000000000000000000000000000602082015250565b7f416464726573733a20696e73756666696369656e742062616c616e636520666f60008201527f722063616c6c0000000000000000000000000000000000000000000000000000602082015250565b7f45434453413a20696e76616c6964207369676e6174757265202776272076616c60008201527f7565000000000000000000000000000000000000000000000000000000000000602082015250565b7f4f776e61626c653a2063616c6c6572206973206e6f7420746865206f776e6572600082015250565b7f4661696c656420746f2077697468647261772045746865720000000000000000600082015250565b50565b7f5369676e617475726520686173206265656e2075736564000000000000000000600082015250565b7f416464726573733a2063616c6c20746f206e6f6e2d636f6e7472616374000000600082015250565b7f5361666545524332303a204552433230206f7065726174696f6e20646964206e60008201527f6f74207375636365656400000000000000000000000000000000000000000000602082015250565b7f4554485f4e4f545f414c4c4f5745440000000000000000000000000000000000600082015250565b6158f48161522d565b81146158ff57600080fd5b50565b61590b8161523f565b811461591657600080fd5b50565b6159228161524b565b811461592d57600080fd5b50565b61593981615255565b811461594457600080fd5b50565b61595081615281565b811461595b57600080fd5b50565b615967816152b3565b811461597257600080fd5b5056fea26469706673582212200eaed9a14921c31b702d70ac5fbcf5370b21842fde42d82e99c22e9e9f26895e64736f6c63430008040033",
  "devdoc": {
    "kind": "dev",
    "methods": {
      "approve(address,uint256)": {
        "details": "See {IERC721-approve}."
      },
      "balanceOf(address)": {
        "details": "See {IERC721-balanceOf}."
      },
      "baseURI()": {
        "details": "Getter for the base URI.",
        "returns": {
          "_0": "Base URI of the NFT."
        }
      },
      "burn(uint256)": {
        "details": "Burns `tokenId`. See {ERC721A-_burn}. Requirements: - The caller must own `tokenId` or be an approved operator."
      },
      "changeAuthorizedSignerAddress(address)": {
        "details": "Update the authorized signer address.",
        "params": {
          "signerAddress": "new authorized signer address."
        }
      },
      "getApproved(uint256)": {
        "details": "See {IERC721-getApproved}."
      },
      "isApprovedForAll(address,address)": {
        "details": "See {IERC721-isApprovedForAll}."
      },
      "name()": {
        "details": "See {IERC721Metadata-name}."
      },
      "owner()": {
        "details": "Returns the address of the current owner."
      },
      "ownerOf(uint256)": {
        "details": "See {IERC721-ownerOf}."
      },
      "renounceOwnership()": {
        "details": "Leaves the contract without owner. It will not be possible to call `onlyOwner` functions anymore. Can only be called by the current owner. NOTE: Renouncing ownership will leave the contract without an owner, thereby removing any functionality that is only available to the owner."
      },
      "safeMint(address,uint256,bytes32[],uint256,bytes)": {
        "params": {
          "to": "Address of receiver"
        }
      },
      "safeTransferFrom(address,address,uint256)": {
        "details": "See {IERC721-safeTransferFrom}."
      },
      "safeTransferFrom(address,address,uint256,bytes)": {
        "details": "See {IERC721-safeTransferFrom}."
      },
      "setApprovalForAll(address,bool)": {
        "details": "See {IERC721-setApprovalForAll}."
      },
      "setBaseURI(string)": {
        "details": "Only owner can migrate base URI",
        "params": {
          "newBaseURIPrefix": "string prefix of start URI"
        }
      },
      "supportsInterface(bytes4)": {
        "details": "See {IERC165-supportsInterface}."
      },
      "symbol()": {
        "details": "See {IERC721Metadata-symbol}."
      },
      "tokenURI(uint256)": {
        "details": "See {IERC721Metadata-tokenURI}."
      },
      "totalSupply()": {
        "details": "Burned tokens are calculated here, use _totalMinted() if you want to count just minted tokens."
      },
      "transferFrom(address,address,uint256)": {
        "details": "See {IERC721-transferFrom}."
      },
      "transferOwnership(address)": {
        "details": "Transfers ownership of the contract to a new account (`newOwner`). Can only be called by the current owner."
      },
      "updatePriceSettings(address,uint256)": {
        "details": "Update the token price.",
        "params": {
          "newTokenPrice": "The new token price."
        }
      },
      "withdraw(address)": {
        "details": "Owner withdraw revenue from Sales",
        "params": {
          "token_": "token address to be withdrawn."
        }
      }
    },
    "version": 1
  },
  "userdoc": {
    "events": {
      "SetExternalID(uint256,bytes32)": {
        "notice": "EVENT "
      }
    },
    "kind": "user",
    "methods": {
      "externalID(bytes32)": {
        "notice": "mapped external id => tokenId"
      },
      "usedExternalID(bytes32)": {
        "notice": "mapped external id => tokenId"
      }
    },
    "version": 1
  },
  "storageLayout": {
    "storage": [
      {
        "astId": 4291,
        "contract": "contracts/RFOXTV.sol:RFOXTV",
        "label": "_currentIndex",
        "offset": 0,
        "slot": "0",
        "type": "t_uint256"
      },
      {
        "astId": 4293,
        "contract": "contracts/RFOXTV.sol:RFOXTV",
        "label": "_burnCounter",
        "offset": 0,
        "slot": "1",
        "type": "t_uint256"
      },
      {
        "astId": 4295,
        "contract": "contracts/RFOXTV.sol:RFOXTV",
        "label": "_name",
        "offset": 0,
        "slot": "2",
        "type": "t_string_storage"
      },
      {
        "astId": 4297,
        "contract": "contracts/RFOXTV.sol:RFOXTV",
        "label": "_symbol",
        "offset": 0,
        "slot": "3",
        "type": "t_string_storage"
      },
      {
        "astId": 4302,
        "contract": "contracts/RFOXTV.sol:RFOXTV",
        "label": "_ownerships",
        "offset": 0,
        "slot": "4",
        "type": "t_mapping(t_uint256,t_struct(TokenOwnership)4280_storage)"
      },
      {
        "astId": 4307,
        "contract": "contracts/RFOXTV.sol:RFOXTV",
        "label": "_addressData",
        "offset": 0,
        "slot": "5",
        "type": "t_mapping(t_address,t_struct(AddressData)4289_storage)"
      },
      {
        "astId": 4311,
        "contract": "contracts/RFOXTV.sol:RFOXTV",
        "label": "_tokenApprovals",
        "offset": 0,
        "slot": "6",
        "type": "t_mapping(t_uint256,t_address)"
      },
      {
        "astId": 4317,
        "contract": "contracts/RFOXTV.sol:RFOXTV",
        "label": "_operatorApprovals",
        "offset": 0,
        "slot": "7",
        "type": "t_mapping(t_address,t_mapping(t_address,t_bool))"
      },
      {
        "astId": 550,
        "contract": "contracts/RFOXTV.sol:RFOXTV",
        "label": "_owner",
        "offset": 0,
        "slot": "8",
        "type": "t_address"
      },
      {
        "astId": 3618,
        "contract": "contracts/RFOXTV.sol:RFOXTV",
        "label": "usedSignature",
        "offset": 0,
        "slot": "9",
        "type": "t_mapping(t_bytes_memory_ptr,t_bool)"
      },
      {
        "astId": 3623,
        "contract": "contracts/RFOXTV.sol:RFOXTV",
        "label": "externalID",
        "offset": 0,
        "slot": "10",
        "type": "t_mapping(t_bytes32,t_uint256)"
      },
      {
        "astId": 3628,
        "contract": "contracts/RFOXTV.sol:RFOXTV",
        "label": "usedExternalID",
        "offset": 0,
        "slot": "11",
        "type": "t_mapping(t_bytes32,t_bool)"
      },
      {
        "astId": 3630,
        "contract": "contracts/RFOXTV.sol:RFOXTV",
        "label": "authorizedSignerAddress",
        "offset": 0,
        "slot": "12",
        "type": "t_address"
      },
      {
        "astId": 3632,
        "contract": "contracts/RFOXTV.sol:RFOXTV",
        "label": "_baseURIPrefix",
        "offset": 0,
        "slot": "13",
        "type": "t_string_storage"
      },
      {
        "astId": 3634,
        "contract": "contracts/RFOXTV.sol:RFOXTV",
        "label": "tokenPrice",
        "offset": 0,
        "slot": "14",
        "type": "t_uint256"
      },
      {
        "astId": 3637,
        "contract": "contracts/RFOXTV.sol:RFOXTV",
        "label": "saleToken",
        "offset": 0,
        "slot": "15",
        "type": "t_contract(IERC20)1406"
      }
    ],
    "types": {
      "t_address": {
        "encoding": "inplace",
        "label": "address",
        "numberOfBytes": "20"
      },
      "t_bool": {
        "encoding": "inplace",
        "label": "bool",
        "numberOfBytes": "1"
      },
      "t_bytes32": {
        "encoding": "inplace",
        "label": "bytes32",
        "numberOfBytes": "32"
      },
      "t_bytes_memory_ptr": {
        "encoding": "bytes",
        "label": "bytes",
        "numberOfBytes": "32"
      },
      "t_contract(IERC20)1406": {
        "encoding": "inplace",
        "label": "contract IERC20",
        "numberOfBytes": "20"
      },
      "t_mapping(t_address,t_bool)": {
        "encoding": "mapping",
        "key": "t_address",
        "label": "mapping(address => bool)",
        "numberOfBytes": "32",
        "value": "t_bool"
      },
      "t_mapping(t_address,t_mapping(t_address,t_bool))": {
        "encoding": "mapping",
        "key": "t_address",
        "label": "mapping(address => mapping(address => bool))",
        "numberOfBytes": "32",
        "value": "t_mapping(t_address,t_bool)"
      },
      "t_mapping(t_address,t_struct(AddressData)4289_storage)": {
        "encoding": "mapping",
        "key": "t_address",
        "label": "mapping(address => struct ERC721A.AddressData)",
        "numberOfBytes": "32",
        "value": "t_struct(AddressData)4289_storage"
      },
      "t_mapping(t_bytes32,t_bool)": {
        "encoding": "mapping",
        "key": "t_bytes32",
        "label": "mapping(bytes32 => bool)",
        "numberOfBytes": "32",
        "value": "t_bool"
      },
      "t_mapping(t_bytes32,t_uint256)": {
        "encoding": "mapping",
        "key": "t_bytes32",
        "label": "mapping(bytes32 => uint256)",
        "numberOfBytes": "32",
        "value": "t_uint256"
      },
      "t_mapping(t_bytes_memory_ptr,t_bool)": {
        "encoding": "mapping",
        "key": "t_bytes_memory_ptr",
        "label": "mapping(bytes => bool)",
        "numberOfBytes": "32",
        "value": "t_bool"
      },
      "t_mapping(t_uint256,t_address)": {
        "encoding": "mapping",
        "key": "t_uint256",
        "label": "mapping(uint256 => address)",
        "numberOfBytes": "32",
        "value": "t_address"
      },
      "t_mapping(t_uint256,t_struct(TokenOwnership)4280_storage)": {
        "encoding": "mapping",
        "key": "t_uint256",
        "label": "mapping(uint256 => struct ERC721A.TokenOwnership)",
        "numberOfBytes": "32",
        "value": "t_struct(TokenOwnership)4280_storage"
      },
      "t_string_storage": {
        "encoding": "bytes",
        "label": "string",
        "numberOfBytes": "32"
      },
      "t_struct(AddressData)4289_storage": {
        "encoding": "inplace",
        "label": "struct ERC721A.AddressData",
        "members": [
          {
            "astId": 4282,
            "contract": "contracts/RFOXTV.sol:RFOXTV",
            "label": "balance",
            "offset": 0,
            "slot": "0",
            "type": "t_uint64"
          },
          {
            "astId": 4284,
            "contract": "contracts/RFOXTV.sol:RFOXTV",
            "label": "numberMinted",
            "offset": 8,
            "slot": "0",
            "type": "t_uint64"
          },
          {
            "astId": 4286,
            "contract": "contracts/RFOXTV.sol:RFOXTV",
            "label": "numberBurned",
            "offset": 16,
            "slot": "0",
            "type": "t_uint64"
          },
          {
            "astId": 4288,
            "contract": "contracts/RFOXTV.sol:RFOXTV",
            "label": "aux",
            "offset": 24,
            "slot": "0",
            "type": "t_uint64"
          }
        ],
        "numberOfBytes": "32"
      },
      "t_struct(TokenOwnership)4280_storage": {
        "encoding": "inplace",
        "label": "struct ERC721A.TokenOwnership",
        "members": [
          {
            "astId": 4275,
            "contract": "contracts/RFOXTV.sol:RFOXTV",
            "label": "addr",
            "offset": 0,
            "slot": "0",
            "type": "t_address"
          },
          {
            "astId": 4277,
            "contract": "contracts/RFOXTV.sol:RFOXTV",
            "label": "startTimestamp",
            "offset": 20,
            "slot": "0",
            "type": "t_uint64"
          },
          {
            "astId": 4279,
            "contract": "contracts/RFOXTV.sol:RFOXTV",
            "label": "burned",
            "offset": 28,
            "slot": "0",
            "type": "t_bool"
          }
        ],
        "numberOfBytes": "32"
      },
      "t_uint256": {
        "encoding": "inplace",
        "label": "uint256",
        "numberOfBytes": "32"
      },
      "t_uint64": {
        "encoding": "inplace",
        "label": "uint64",
        "numberOfBytes": "8"
      }
    }
  }
}