{
  "address": "0x5287B6AdA3A480fEE4B03386bf803B8ADB67c0b0",
  "abi": [
    {
      "inputs": [
        {
          "internalType": "string",
          "name": "name_",
          "type": "string"
        },
        {
          "internalType": "string",
          "name": "symbol_",
          "type": "string"
        },
        {
          "internalType": "address",
          "name": "authorizedSigner_",
          "type": "address"
        },
        {
          "internalType": "contract IERC20",
          "name": "saleToken_",
          "type": "address"
        },
        {
          "internalType": "uint256",
          "name": "tokenPrice_",
          "type": "uint256"
        }
      ],
      "stateMutability": "nonpayable",
      "type": "constructor"
    },
    {
      "inputs": [],
      "name": "ApprovalCallerNotOwnerNorApproved",
      "type": "error"
    },
    {
      "inputs": [],
      "name": "ApprovalQueryForNonexistentToken",
      "type": "error"
    },
    {
      "inputs": [],
      "name": "ApprovalToCurrentOwner",
      "type": "error"
    },
    {
      "inputs": [],
      "name": "ApproveToCaller",
      "type": "error"
    },
    {
      "inputs": [],
      "name": "BalanceQueryForZeroAddress",
      "type": "error"
    },
    {
      "inputs": [],
      "name": "MintToZeroAddress",
      "type": "error"
    },
    {
      "inputs": [],
      "name": "MintZeroQuantity",
      "type": "error"
    },
    {
      "inputs": [],
      "name": "OwnerQueryForNonexistentToken",
      "type": "error"
    },
    {
      "inputs": [],
      "name": "TransferCallerNotOwnerNorApproved",
      "type": "error"
    },
    {
      "inputs": [],
      "name": "TransferFromIncorrectOwner",
      "type": "error"
    },
    {
      "inputs": [],
      "name": "TransferToNonERC721ReceiverImplementer",
      "type": "error"
    },
    {
      "inputs": [],
      "name": "TransferToZeroAddress",
      "type": "error"
    },
    {
      "inputs": [],
      "name": "URIQueryForNonexistentToken",
      "type": "error"
    },
    {
      "anonymous": false,
      "inputs": [
        {
          "indexed": true,
          "internalType": "address",
          "name": "owner",
          "type": "address"
        },
        {
          "indexed": true,
          "internalType": "address",
          "name": "approved",
          "type": "address"
        },
        {
          "indexed": true,
          "internalType": "uint256",
          "name": "tokenId",
          "type": "uint256"
        }
      ],
      "name": "Approval",
      "type": "event"
    },
    {
      "anonymous": false,
      "inputs": [
        {
          "indexed": true,
          "internalType": "address",
          "name": "owner",
          "type": "address"
        },
        {
          "indexed": true,
          "internalType": "address",
          "name": "operator",
          "type": "address"
        },
        {
          "indexed": false,
          "internalType": "bool",
          "name": "approved",
          "type": "bool"
        }
      ],
      "name": "ApprovalForAll",
      "type": "event"
    },
    {
      "anonymous": false,
      "inputs": [
        {
          "indexed": true,
          "internalType": "address",
          "name": "sender",
          "type": "address"
        },
        {
          "indexed": false,
          "internalType": "address",
          "name": "oldAddress",
          "type": "address"
        },
        {
          "indexed": false,
          "internalType": "address",
          "name": "newAddress",
          "type": "address"
        }
      ],
      "name": "AuthorizedSignerAddress",
      "type": "event"
    },
    {
      "anonymous": false,
      "inputs": [
        {
          "indexed": true,
          "internalType": "address",
          "name": "previousOwner",
          "type": "address"
        },
        {
          "indexed": true,
          "internalType": "address",
          "name": "newOwner",
          "type": "address"
        }
      ],
      "name": "OwnershipTransferred",
      "type": "event"
    },
    {
      "anonymous": false,
      "inputs": [
        {
          "indexed": true,
          "internalType": "uint256",
          "name": "tokenId",
          "type": "uint256"
        },
        {
          "indexed": true,
          "internalType": "bytes32",
          "name": "externalId",
          "type": "bytes32"
        }
      ],
      "name": "SetExternalID",
      "type": "event"
    },
    {
      "anonymous": false,
      "inputs": [
        {
          "indexed": true,
          "internalType": "address",
          "name": "from",
          "type": "address"
        },
        {
          "indexed": true,
          "internalType": "address",
          "name": "to",
          "type": "address"
        },
        {
          "indexed": true,
          "internalType": "uint256",
          "name": "tokenId",
          "type": "uint256"
        }
      ],
      "name": "Transfer",
      "type": "event"
    },
    {
      "anonymous": false,
      "inputs": [
        {
          "indexed": false,
          "internalType": "contract IERC20",
          "name": "oldSaleToken",
          "type": "address"
        },
        {
          "indexed": false,
          "internalType": "uint256",
          "name": "oldTokenPrice",
          "type": "uint256"
        },
        {
          "indexed": false,
          "internalType": "contract IERC20",
          "name": "newSaleToken",
          "type": "address"
        },
        {
          "indexed": false,
          "internalType": "uint256",
          "name": "newTokenPrice",
          "type": "uint256"
        }
      ],
      "name": "UpdatePriceSettings",
      "type": "event"
    },
    {
      "anonymous": false,
      "inputs": [
        {
          "indexed": true,
          "internalType": "address",
          "name": "sender",
          "type": "address"
        },
        {
          "indexed": false,
          "internalType": "string",
          "name": "oldURI",
          "type": "string"
        },
        {
          "indexed": false,
          "internalType": "string",
          "name": "newURI",
          "type": "string"
        }
      ],
      "name": "UpdateURI",
      "type": "event"
    },
    {
      "anonymous": false,
      "inputs": [
        {
          "indexed": true,
          "internalType": "address",
          "name": "sender",
          "type": "address"
        },
        {
          "indexed": false,
          "internalType": "address",
          "name": "saleToken",
          "type": "address"
        },
        {
          "indexed": false,
          "internalType": "uint256",
          "name": "totalWithdrawn",
          "type": "uint256"
        }
      ],
      "name": "Withdraw",
      "type": "event"
    },
    {
      "inputs": [
        {
          "internalType": "address",
          "name": "to",
          "type": "address"
        },
        {
          "internalType": "uint256",
          "name": "tokenId",
          "type": "uint256"
        }
      ],
      "name": "approve",
      "outputs": [],
      "stateMutability": "nonpayable",
      "type": "function"
    },
    {
      "inputs": [],
      "name": "authorizedSignerAddress",
      "outputs": [
        {
          "internalType": "address",
          "name": "",
          "type": "address"
        }
      ],
      "stateMutability": "view",
      "type": "function"
    },
    {
      "inputs": [
        {
          "internalType": "address",
          "name": "owner",
          "type": "address"
        }
      ],
      "name": "balanceOf",
      "outputs": [
        {
          "internalType": "uint256",
          "name": "",
          "type": "uint256"
        }
      ],
      "stateMutability": "view",
      "type": "function"
    },
    {
      "inputs": [],
      "name": "baseURI",
      "outputs": [
        {
          "internalType": "string",
          "name": "",
          "type": "string"
        }
      ],
      "stateMutability": "view",
      "type": "function"
    },
    {
      "inputs": [
        {
          "internalType": "uint256",
          "name": "tokenId",
          "type": "uint256"
        }
      ],
      "name": "burn",
      "outputs": [],
      "stateMutability": "nonpayable",
      "type": "function"
    },
    {
      "inputs": [
        {
          "internalType": "address",
          "name": "signerAddress",
          "type": "address"
        }
      ],
      "name": "changeAuthorizedSignerAddress",
      "outputs": [],
      "stateMutability": "nonpayable",
      "type": "function"
    },
    {
      "inputs": [
        {
          "internalType": "bytes32",
          "name": "",
          "type": "bytes32"
        }
      ],
      "name": "externalID",
      "outputs": [
        {
          "internalType": "uint256",
          "name": "",
          "type": "uint256"
        }
      ],
      "stateMutability": "view",
      "type": "function"
    },
    {
      "inputs": [
        {
          "internalType": "uint256",
          "name": "tokenId",
          "type": "uint256"
        }
      ],
      "name": "getApproved",
      "outputs": [
        {
          "internalType": "address",
          "name": "",
          "type": "address"
        }
      ],
      "stateMutability": "view",
      "type": "function"
    },
    {
      "inputs": [
        {
          "internalType": "address",
          "name": "owner",
          "type": "address"
        },
        {
          "internalType": "address",
          "name": "operator",
          "type": "address"
        }
      ],
      "name": "isApprovedForAll",
      "outputs": [
        {
          "internalType": "bool",
          "name": "",
          "type": "bool"
        }
      ],
      "stateMutability": "view",
      "type": "function"
    },
    {
      "inputs": [],
      "name": "name",
      "outputs": [
        {
          "internalType": "string",
          "name": "",
          "type": "string"
        }
      ],
      "stateMutability": "view",
      "type": "function"
    },
    {
      "inputs": [],
      "name": "owner",
      "outputs": [
        {
          "internalType": "address",
          "name": "",
          "type": "address"
        }
      ],
      "stateMutability": "view",
      "type": "function"
    },
    {
      "inputs": [
        {
          "internalType": "uint256",
          "name": "tokenId",
          "type": "uint256"
        }
      ],
      "name": "ownerOf",
      "outputs": [
        {
          "internalType": "address",
          "name": "",
          "type": "address"
        }
      ],
      "stateMutability": "view",
      "type": "function"
    },
    {
      "inputs": [],
      "name": "renounceOwnership",
      "outputs": [],
      "stateMutability": "nonpayable",
      "type": "function"
    },
    {
      "inputs": [
        {
          "internalType": "address",
          "name": "to",
          "type": "address"
        },
        {
          "internalType": "uint256",
          "name": "totalMint",
          "type": "uint256"
        },
        {
          "internalType": "bytes32[]",
          "name": "externalId",
          "type": "bytes32[]"
        },
        {
          "internalType": "uint256",
          "name": "salt",
          "type": "uint256"
        },
        {
          "internalType": "bytes",
          "name": "signature",
          "type": "bytes"
        }
      ],
      "name": "safeMint",
      "outputs": [],
      "stateMutability": "payable",
      "type": "function"
    },
    {
      "inputs": [
        {
          "internalType": "address",
          "name": "from",
          "type": "address"
        },
        {
          "internalType": "address",
          "name": "to",
          "type": "address"
        },
        {
          "internalType": "uint256",
          "name": "tokenId",
          "type": "uint256"
        }
      ],
      "name": "safeTransferFrom",
      "outputs": [],
      "stateMutability": "nonpayable",
      "type": "function"
    },
    {
      "inputs": [
        {
          "internalType": "address",
          "name": "from",
          "type": "address"
        },
        {
          "internalType": "address",
          "name": "to",
          "type": "address"
        },
        {
          "internalType": "uint256",
          "name": "tokenId",
          "type": "uint256"
        },
        {
          "internalType": "bytes",
          "name": "_data",
          "type": "bytes"
        }
      ],
      "name": "safeTransferFrom",
      "outputs": [],
      "stateMutability": "nonpayable",
      "type": "function"
    },
    {
      "inputs": [],
      "name": "saleToken",
      "outputs": [
        {
          "internalType": "contract IERC20",
          "name": "",
          "type": "address"
        }
      ],
      "stateMutability": "view",
      "type": "function"
    },
    {
      "inputs": [
        {
          "internalType": "address",
          "name": "operator",
          "type": "address"
        },
        {
          "internalType": "bool",
          "name": "approved",
          "type": "bool"
        }
      ],
      "name": "setApprovalForAll",
      "outputs": [],
      "stateMutability": "nonpayable",
      "type": "function"
    },
    {
      "inputs": [
        {
          "internalType": "string",
          "name": "newBaseURIPrefix",
          "type": "string"
        }
      ],
      "name": "setBaseURI",
      "outputs": [],
      "stateMutability": "nonpayable",
      "type": "function"
    },
    {
      "inputs": [
        {
          "internalType": "bytes4",
          "name": "interfaceId",
          "type": "bytes4"
        }
      ],
      "name": "supportsInterface",
      "outputs": [
        {
          "internalType": "bool",
          "name": "",
          "type": "bool"
        }
      ],
      "stateMutability": "view",
      "type": "function"
    },
    {
      "inputs": [],
      "name": "symbol",
      "outputs": [
        {
          "internalType": "string",
          "name": "",
          "type": "string"
        }
      ],
      "stateMutability": "view",
      "type": "function"
    },
    {
      "inputs": [],
      "name": "tokenPrice",
      "outputs": [
        {
          "internalType": "uint256",
          "name": "",
          "type": "uint256"
        }
      ],
      "stateMutability": "view",
      "type": "function"
    },
    {
      "inputs": [
        {
          "internalType": "uint256",
          "name": "tokenId",
          "type": "uint256"
        }
      ],
      "name": "tokenURI",
      "outputs": [
        {
          "internalType": "string",
          "name": "",
          "type": "string"
        }
      ],
      "stateMutability": "view",
      "type": "function"
    },
    {
      "inputs": [],
      "name": "totalSupply",
      "outputs": [
        {
          "internalType": "uint256",
          "name": "",
          "type": "uint256"
        }
      ],
      "stateMutability": "view",
      "type": "function"
    },
    {
      "inputs": [
        {
          "internalType": "address",
          "name": "from",
          "type": "address"
        },
        {
          "internalType": "address",
          "name": "to",
          "type": "address"
        },
        {
          "internalType": "uint256",
          "name": "tokenId",
          "type": "uint256"
        }
      ],
      "name": "transferFrom",
      "outputs": [],
      "stateMutability": "nonpayable",
      "type": "function"
    },
    {
      "inputs": [
        {
          "internalType": "address",
          "name": "newOwner",
          "type": "address"
        }
      ],
      "name": "transferOwnership",
      "outputs": [],
      "stateMutability": "nonpayable",
      "type": "function"
    },
    {
      "inputs": [
        {
          "internalType": "contract IERC20",
          "name": "newSaleToken",
          "type": "address"
        },
        {
          "internalType": "uint256",
          "name": "newTokenPrice",
          "type": "uint256"
        }
      ],
      "name": "updatePriceSettings",
      "outputs": [],
      "stateMutability": "nonpayable",
      "type": "function"
    },
    {
      "inputs": [
        {
          "internalType": "bytes32",
          "name": "",
          "type": "bytes32"
        }
      ],
      "name": "usedExternalID",
      "outputs": [
        {
          "internalType": "bool",
          "name": "",
          "type": "bool"
        }
      ],
      "stateMutability": "view",
      "type": "function"
    },
    {
      "inputs": [
        {
          "internalType": "contract IERC20",
          "name": "token_",
          "type": "address"
        }
      ],
      "name": "withdraw",
      "outputs": [],
      "stateMutability": "nonpayable",
      "type": "function"
    }
  ],
  "transactionHash": "0xad74635d0394bc2212a10434ea61788d10e3aa2f67aaee6af46fced2f5dcbf74",
  "args": [
    "TVTEST",
    "TVTEST",
    "0x6BbaF8dE2Da04d5F9933a9AdC2fC40fD125C0a6b",
    "0x0000000000000000000000000000000000000000",
    "10000000000000000"
  ],
  "numDeployments": 1,
  "solcInputHash": "68ba3965c056a5d3f6f214edd6bd5ed8",
  "bytecode": "0x60806040523480156200001157600080fd5b506040516200613c3803806200613c833981810160405281019062000037919062000548565b8484816002908051906020019062000051929190620003e1565b5080600390805190602001906200006a929190620003e1565b506200007b6200017660201b60201c565b6000819055505050620000a3620000976200017b60201b60201c565b6200018360201b60201c565b82600c60006101000a81548173ffffffffffffffffffffffffffffffffffffffff021916908373ffffffffffffffffffffffffffffffffffffffff160217905550620000f682826200024960201b60201c565b3373ffffffffffffffffffffffffffffffffffffffff167f2a1c126daaa5a808c12b7dc0e4a2d384d7a506dc888299a8940fc569444c4aeb6000600c60009054906101000a900473ffffffffffffffffffffffffffffffffffffffff166040516200016392919062000656565b60405180910390a2505050505062000964565b600090565b600033905090565b6000600860009054906101000a900473ffffffffffffffffffffffffffffffffffffffff16905081600860006101000a81548173ffffffffffffffffffffffffffffffffffffffff021916908373ffffffffffffffffffffffffffffffffffffffff1602179055508173ffffffffffffffffffffffffffffffffffffffff168173ffffffffffffffffffffffffffffffffffffffff167f8be0079c531659141344cd1fd0a4f28419497f9722a3daafe3b4186f6b6457e060405160405180910390a35050565b620002596200017b60201b60201c565b73ffffffffffffffffffffffffffffffffffffffff166200027f620003b760201b60201c565b73ffffffffffffffffffffffffffffffffffffffff1614620002d8576040517f08c379a0000000000000000000000000000000000000000000000000000000008152600401620002cf90620006d0565b60405180910390fd5b6000600f60009054906101000a900473ffffffffffffffffffffffffffffffffffffffff1690506000600e54905082600e8190555083600f60006101000a81548173ffffffffffffffffffffffffffffffffffffffff021916908373ffffffffffffffffffffffffffffffffffffffff1602179055507f26c66ad60791b432b53bdc302db41307126d30fc0b446de812b21312423d04c98282600f60009054906101000a900473ffffffffffffffffffffffffffffffffffffffff16600e54604051620003a9949392919062000683565b60405180910390a150505050565b6000600860009054906101000a900473ffffffffffffffffffffffffffffffffffffffff16905090565b828054620003ef9062000812565b90600052602060002090601f0160209004810192826200041357600085556200045f565b82601f106200042e57805160ff19168380011785556200045f565b828001600101855582156200045f579182015b828111156200045e57825182559160200191906001019062000441565b5b5090506200046e919062000472565b5090565b5b808211156200048d57600081600090555060010162000473565b5090565b6000620004a8620004a2846200071b565b620006f2565b905082815260208101848484011115620004c157600080fd5b620004ce848285620007dc565b509392505050565b600081519050620004e78162000916565b92915050565b600081519050620004fe8162000930565b92915050565b600082601f8301126200051657600080fd5b81516200052884826020860162000491565b91505092915050565b60008151905062000542816200094a565b92915050565b600080600080600060a086880312156200056157600080fd5b600086015167ffffffffffffffff8111156200057c57600080fd5b6200058a8882890162000504565b955050602086015167ffffffffffffffff811115620005a857600080fd5b620005b68882890162000504565b9450506040620005c988828901620004d6565b9350506060620005dc88828901620004ed565b9250506080620005ef8882890162000531565b9150509295509295909350565b620006078162000762565b82525050565b6200061881620007b4565b82525050565b60006200062d60208362000751565b91506200063a82620008ed565b602082019050919050565b6200065081620007aa565b82525050565b60006040820190506200066d6000830185620005fc565b6200067c6020830184620005fc565b9392505050565b60006080820190506200069a60008301876200060d565b620006a9602083018662000645565b620006b860408301856200060d565b620006c7606083018462000645565b95945050505050565b60006020820190508181036000830152620006eb816200061e565b9050919050565b6000620006fe62000711565b90506200070c828262000848565b919050565b6000604051905090565b600067ffffffffffffffff821115620007395762000738620008ad565b5b6200074482620008dc565b9050602081019050919050565b600082825260208201905092915050565b60006200076f826200078a565b9050919050565b6000620007838262000762565b9050919050565b600073ffffffffffffffffffffffffffffffffffffffff82169050919050565b6000819050919050565b6000620007c182620007c8565b9050919050565b6000620007d5826200078a565b9050919050565b60005b83811015620007fc578082015181840152602081019050620007df565b838111156200080c576000848401525b50505050565b600060028204905060018216806200082b57607f821691505b602082108114156200084257620008416200087e565b5b50919050565b6200085382620008dc565b810181811067ffffffffffffffff82111715620008755762000874620008ad565b5b80604052505050565b7f4e487b7100000000000000000000000000000000000000000000000000000000600052602260045260246000fd5b7f4e487b7100000000000000000000000000000000000000000000000000000000600052604160045260246000fd5b6000601f19601f8301169050919050565b7f4f776e61626c653a2063616c6c6572206973206e6f7420746865206f776e6572600082015250565b620009218162000762565b81146200092d57600080fd5b50565b6200093b8162000776565b81146200094757600080fd5b50565b6200095581620007aa565b81146200096157600080fd5b50565b6157c880620009746000396000f3fe6080604052600436106101c25760003560e01c8063699bff80116100f757806395d89b4111610095578063c87b56dd11610064578063c87b56dd1461062f578063e985e3671461066c578063e985e9c514610697578063f2fde38b146106d4576101c2565b806395d89b41146105755780639b039da3146105a0578063a22cb465146105dd578063b88d4fde14610606576101c2565b8063715018a6116100d1578063715018a6146104df578063717949ab146104f65780637ff9b5961461051f5780638da5cb5b1461054a576101c2565b8063699bff801461044c5780636c0360eb1461047757806370a08231146104a2576101c2565b80632785f5301161016457806342966c681161013e57806342966c681461039457806351cff8d9146103bd57806355f804b3146103e65780636352211e1461040f576101c2565b80632785f5301461032657806337a037741461034f57806342842e0e1461036b576101c2565b8063095ea7b3116101a0578063095ea7b31461026c57806313f567b11461029557806318160ddd146102d257806323b872dd146102fd576101c2565b806301ffc9a7146101c757806306fdde0314610204578063081812fc1461022f575b600080fd5b3480156101d357600080fd5b506101ee60048036038101906101e991906141f1565b6106fd565b6040516101fb9190614a78565b60405180910390f35b34801561021057600080fd5b506102196107df565b6040516102269190614b38565b60405180910390f35b34801561023b57600080fd5b50610256600480360381019061025191906142e9565b610871565b6040516102639190614988565b60405180910390f35b34801561027857600080fd5b50610293600480360381019061028e91906140b9565b6108ed565b005b3480156102a157600080fd5b506102bc60048036038101906102b791906141c8565b6109f8565b6040516102c99190614dd1565b60405180910390f35b3480156102de57600080fd5b506102e7610a10565b6040516102f49190614dd1565b60405180910390f35b34801561030957600080fd5b50610324600480360381019061031f9190613fb3565b610a27565b005b34801561033257600080fd5b5061034d6004803603810190610348919061426c565b610a37565b005b610369600480360381019061036491906140f5565b610b90565b005b34801561037757600080fd5b50610392600480360381019061038d9190613fb3565b611028565b005b3480156103a057600080fd5b506103bb60048036038101906103b691906142e9565b611048565b005b3480156103c957600080fd5b506103e460048036038101906103df9190614243565b611056565b005b3480156103f257600080fd5b5061040d600480360381019061040891906142a8565b6112c8565b005b34801561041b57600080fd5b50610436600480360381019061043191906142e9565b61143f565b6040516104439190614988565b60405180910390f35b34801561045857600080fd5b50610461611455565b60405161046e9190614988565b60405180910390f35b34801561048357600080fd5b5061048c61147b565b6040516104999190614b38565b60405180910390f35b3480156104ae57600080fd5b506104c960048036038101906104c49190613f4e565b61148a565b6040516104d69190614dd1565b60405180910390f35b3480156104eb57600080fd5b506104f461155a565b005b34801561050257600080fd5b5061051d60048036038101906105189190613f4e565b6115e2565b005b34801561052b57600080fd5b5061053461178a565b6040516105419190614dd1565b60405180910390f35b34801561055657600080fd5b5061055f611790565b60405161056c9190614988565b60405180910390f35b34801561058157600080fd5b5061058a6117ba565b6040516105979190614b38565b60405180910390f35b3480156105ac57600080fd5b506105c760048036038101906105c291906141c8565b61184c565b6040516105d49190614a78565b60405180910390f35b3480156105e957600080fd5b5061060460048036038101906105ff919061407d565b61186c565b005b34801561061257600080fd5b5061062d60048036038101906106289190614002565b6119e4565b005b34801561063b57600080fd5b50610656600480360381019061065191906142e9565b611a60565b6040516106639190614b38565b60405180910390f35b34801561067857600080fd5b50610681611aff565b60405161068e9190614ad8565b60405180910390f35b3480156106a357600080fd5b506106be60048036038101906106b99190613f77565b611b25565b6040516106cb9190614a78565b60405180910390f35b3480156106e057600080fd5b506106fb60048036038101906106f69190613f4e565b611bb9565b005b60007f80ac58cd000000000000000000000000000000000000000000000000000000007bffffffffffffffffffffffffffffffffffffffffffffffffffffffff1916827bffffffffffffffffffffffffffffffffffffffffffffffffffffffff191614806107c857507f5b5e139f000000000000000000000000000000000000000000000000000000007bffffffffffffffffffffffffffffffffffffffffffffffffffffffff1916827bffffffffffffffffffffffffffffffffffffffffffffffffffffffff1916145b806107d857506107d782611cb1565b5b9050919050565b6060600280546107ee9061514d565b80601f016020809104026020016040519081016040528092919081815260200182805461081a9061514d565b80156108675780601f1061083c57610100808354040283529160200191610867565b820191906000526020600020905b81548152906001019060200180831161084a57829003601f168201915b5050505050905090565b600061087c82611d1b565b6108b2576040517fcf4700e400000000000000000000000000000000000000000000000000000000815260040160405180910390fd5b6006600083815260200190815260200160002060009054906101000a900473ffffffffffffffffffffffffffffffffffffffff169050919050565b60006108f88261143f565b90508073ffffffffffffffffffffffffffffffffffffffff168373ffffffffffffffffffffffffffffffffffffffff161415610960576040517f943f7b8c00000000000000000000000000000000000000000000000000000000815260040160405180910390fd5b8073ffffffffffffffffffffffffffffffffffffffff1661097f611d69565b73ffffffffffffffffffffffffffffffffffffffff16141580156109b157506109af816109aa611d69565b611b25565b155b156109e8576040517fcfb3b94200000000000000000000000000000000000000000000000000000000815260040160405180910390fd5b6109f3838383611d71565b505050565b600a6020528060005260406000206000915090505481565b6000610a1a611e23565b6001546000540303905090565b610a32838383611e28565b505050565b610a3f611d69565b73ffffffffffffffffffffffffffffffffffffffff16610a5d611790565b73ffffffffffffffffffffffffffffffffffffffff1614610ab3576040517f08c379a0000000000000000000000000000000000000000000000000000000008152600401610aaa90614d11565b60405180910390fd5b6000600f60009054906101000a900473ffffffffffffffffffffffffffffffffffffffff1690506000600e54905082600e8190555083600f60006101000a81548173ffffffffffffffffffffffffffffffffffffffff021916908373ffffffffffffffffffffffffffffffffffffffff1602179055507f26c66ad60791b432b53bdc302db41307126d30fc0b446de812b21312423d04c98282600f60009054906101000a900473ffffffffffffffffffffffffffffffffffffffff16600e54604051610b829493929190614af3565b60405180910390a150505050565b818160098282604051610ba49291906148f9565b908152602001604051809103902060009054906101000a900460ff1615610c00576040517f08c379a0000000000000000000000000000000000000000000000000000000008152600401610bf790614d51565b60405180910390fd5b610ca03387604051602001610c1591906148e2565b604051602081830303815290604052805190602001203088604051602001610c409493929190614894565b6040516020818303038152906040528051906020012085858080601f016020809104026020016040519081016040528093929190818152602001838380828437600081840152601f19601f820116905080830192505050505050506122de565b610cdf576040517f08c379a0000000000000000000000000000000000000000000000000000000008152600401610cd690614c91565b60405180910390fd5b86865114610d22576040517f08c379a0000000000000000000000000000000000000000000000000000000008152600401610d1990614bb1565b60405180910390fd5b60008054905060008060008073ffffffffffffffffffffffffffffffffffffffff16600f60009054906101000a900473ffffffffffffffffffffffffffffffffffffffff1673ffffffffffffffffffffffffffffffffffffffff161415610dd7578a600e54610d919190614fbc565b3414610dd2576040517f08c379a0000000000000000000000000000000000000000000000000000000008152600401610dc990614c31565b60405180910390fd5b610e77565b60003414610e1a576040517f08c379a0000000000000000000000000000000000000000000000000000000008152600401610e1190614db1565b60405180910390fd5b610e7633308d600e54610e2d9190614fbc565b600f60009054906101000a900473ffffffffffffffffffffffffffffffffffffffff1673ffffffffffffffffffffffffffffffffffffffff166123ea909392919063ffffffff16565b5b610e818c8c612473565b60008490505b600054811015610fe0578092508a8481518110610ecd577f4e487b7100000000000000000000000000000000000000000000000000000000600052603260045260246000fd5b602002602001015191506000801b8214158015610f0e575060001515600b600084815260200190815260200160002060009054906101000a900460ff161515145b610f4d576040517f08c379a0000000000000000000000000000000000000000000000000000000008152600401610f4490614bd1565b60405180910390fd5b82600a6000848152602001908152602001600020819055506001600b600084815260200190815260200160002060006101000a81548160ff0219169083151502179055508380610f9c906151b0565b94505081837f4f10fb24bf1e336dd6aee424399c66cceb2bba21700de5971c83de3441b1052160405160405180910390a38080610fd8906151b0565b915050610e87565b50600160098989604051610ff59291906148f9565b908152602001604051809103902060006101000a81548160ff021916908315150217905550505050505050505050505050565b611043838383604051806020016040528060008152506119e4565b505050565b611053816001612491565b50565b61105e611d69565b73ffffffffffffffffffffffffffffffffffffffff1661107c611790565b73ffffffffffffffffffffffffffffffffffffffff16146110d2576040517f08c379a00000000000000000000000000000000000000000000000000000000081526004016110c990614d11565b60405180910390fd5b60008073ffffffffffffffffffffffffffffffffffffffff168273ffffffffffffffffffffffffffffffffffffffff1614156111bd5747905060003373ffffffffffffffffffffffffffffffffffffffff168260405161113190614973565b60006040518083038185875af1925050503d806000811461116e576040519150601f19603f3d011682016040523d82523d6000602084013e611173565b606091505b50509050806111b7576040517f08c379a00000000000000000000000000000000000000000000000000000000081526004016111ae90614d31565b60405180910390fd5b50611274565b8173ffffffffffffffffffffffffffffffffffffffff166370a08231306040518263ffffffff1660e01b81526004016111f69190614988565b60206040518083038186803b15801561120e57600080fd5b505afa158015611222573d6000803e3d6000fd5b505050506040513d601f19601f820116820180604052508101906112469190614312565b905061127333828473ffffffffffffffffffffffffffffffffffffffff166128819092919063ffffffff16565b5b3373ffffffffffffffffffffffffffffffffffffffff167f9b1bfa7fa9ee420a16e124f794c35ac9f90472acc99140eb2f6447c714cad8eb83836040516112bc929190614a4f565b60405180910390a25050565b6112d0611d69565b73ffffffffffffffffffffffffffffffffffffffff166112ee611790565b73ffffffffffffffffffffffffffffffffffffffff1614611344576040517f08c379a000000000000000000000000000000000000000000000000000000000815260040161133b90614d11565b60405180910390fd5b6000600d80546113539061514d565b80601f016020809104026020016040519081016040528092919081815260200182805461137f9061514d565b80156113cc5780601f106113a1576101008083540402835291602001916113cc565b820191906000526020600020905b8154815290600101906020018083116113af57829003601f168201915b5050505050905081600d90805190602001906113e9929190613bfb565b503373ffffffffffffffffffffffffffffffffffffffff167f1583e02b0b2a79149e9152563c00c240bf33e5291f9c5337a03c013d74e177dd82600d604051611433929190614b5a565b60405180910390a25050565b600061144a82612907565b600001519050919050565b600c60009054906101000a900473ffffffffffffffffffffffffffffffffffffffff1681565b6060611485612b96565b905090565b60008073ffffffffffffffffffffffffffffffffffffffff168273ffffffffffffffffffffffffffffffffffffffff1614156114f2576040517f8f4eb60400000000000000000000000000000000000000000000000000000000815260040160405180910390fd5b600560008373ffffffffffffffffffffffffffffffffffffffff1673ffffffffffffffffffffffffffffffffffffffff16815260200190815260200160002060000160009054906101000a900467ffffffffffffffff1667ffffffffffffffff169050919050565b611562611d69565b73ffffffffffffffffffffffffffffffffffffffff16611580611790565b73ffffffffffffffffffffffffffffffffffffffff16146115d6576040517f08c379a00000000000000000000000000000000000000000000000000000000081526004016115cd90614d11565b60405180910390fd5b6115e06000612c28565b565b6115ea611d69565b73ffffffffffffffffffffffffffffffffffffffff16611608611790565b73ffffffffffffffffffffffffffffffffffffffff161461165e576040517f08c379a000000000000000000000000000000000000000000000000000000000815260040161165590614d11565b60405180910390fd5b600073ffffffffffffffffffffffffffffffffffffffff168173ffffffffffffffffffffffffffffffffffffffff1614156116ce576040517f08c379a00000000000000000000000000000000000000000000000000000000081526004016116c590614c71565b60405180910390fd5b6000600c60009054906101000a900473ffffffffffffffffffffffffffffffffffffffff16905081600c60006101000a81548173ffffffffffffffffffffffffffffffffffffffff021916908373ffffffffffffffffffffffffffffffffffffffff1602179055503373ffffffffffffffffffffffffffffffffffffffff167f2a1c126daaa5a808c12b7dc0e4a2d384d7a506dc888299a8940fc569444c4aeb828460405161177e9291906149a3565b60405180910390a25050565b600e5481565b6000600860009054906101000a900473ffffffffffffffffffffffffffffffffffffffff16905090565b6060600380546117c99061514d565b80601f01602080910402602001604051908101604052809291908181526020018280546117f59061514d565b80156118425780601f1061181757610100808354040283529160200191611842565b820191906000526020600020905b81548152906001019060200180831161182557829003601f168201915b5050505050905090565b600b6020528060005260406000206000915054906101000a900460ff1681565b611874611d69565b73ffffffffffffffffffffffffffffffffffffffff168273ffffffffffffffffffffffffffffffffffffffff1614156118d9576040517fb06307db00000000000000000000000000000000000000000000000000000000815260040160405180910390fd5b80600760006118e6611d69565b73ffffffffffffffffffffffffffffffffffffffff1673ffffffffffffffffffffffffffffffffffffffff16815260200190815260200160002060008473ffffffffffffffffffffffffffffffffffffffff1673ffffffffffffffffffffffffffffffffffffffff16815260200190815260200160002060006101000a81548160ff0219169083151502179055508173ffffffffffffffffffffffffffffffffffffffff16611993611d69565b73ffffffffffffffffffffffffffffffffffffffff167f17307eab39ab6107e8899845ad3d59bd9653f200f220920489ca2b5937696c31836040516119d89190614a78565b60405180910390a35050565b6119ef848484611e28565b611a0e8373ffffffffffffffffffffffffffffffffffffffff16612cee565b8015611a235750611a2184848484612d11565b155b15611a5a576040517fd1a57ed600000000000000000000000000000000000000000000000000000000815260040160405180910390fd5b50505050565b6060611a6b82611d1b565b611aa1576040517fa14c4b5000000000000000000000000000000000000000000000000000000000815260040160405180910390fd5b6000611aab612b96565b9050600081511415611acc5760405180602001604052806000815250611af7565b80611ad684612e71565b604051602001611ae7929190614929565b6040516020818303038152906040525b915050919050565b600f60009054906101000a900473ffffffffffffffffffffffffffffffffffffffff1681565b6000600760008473ffffffffffffffffffffffffffffffffffffffff1673ffffffffffffffffffffffffffffffffffffffff16815260200190815260200160002060008373ffffffffffffffffffffffffffffffffffffffff1673ffffffffffffffffffffffffffffffffffffffff16815260200190815260200160002060009054906101000a900460ff16905092915050565b611bc1611d69565b73ffffffffffffffffffffffffffffffffffffffff16611bdf611790565b73ffffffffffffffffffffffffffffffffffffffff1614611c35576040517f08c379a0000000000000000000000000000000000000000000000000000000008152600401611c2c90614d11565b60405180910390fd5b600073ffffffffffffffffffffffffffffffffffffffff168173ffffffffffffffffffffffffffffffffffffffff161415611ca5576040517f08c379a0000000000000000000000000000000000000000000000000000000008152600401611c9c90614c51565b60405180910390fd5b611cae81612c28565b50565b60007f01ffc9a7000000000000000000000000000000000000000000000000000000007bffffffffffffffffffffffffffffffffffffffffffffffffffffffff1916827bffffffffffffffffffffffffffffffffffffffffffffffffffffffff1916149050919050565b600081611d26611e23565b11158015611d35575060005482105b8015611d62575060046000838152602001908152602001600020600001601c9054906101000a900460ff16155b9050919050565b600033905090565b826006600084815260200190815260200160002060006101000a81548173ffffffffffffffffffffffffffffffffffffffff021916908373ffffffffffffffffffffffffffffffffffffffff160217905550818373ffffffffffffffffffffffffffffffffffffffff168273ffffffffffffffffffffffffffffffffffffffff167f8c5be1e5ebec7d5bd14f71427d1e84f3dd0314c0f7b2291e5b200ac8c7c3b92560405160405180910390a4505050565b600090565b6000611e3382612907565b90508373ffffffffffffffffffffffffffffffffffffffff16816000015173ffffffffffffffffffffffffffffffffffffffff1614611e9e576040517fa114810000000000000000000000000000000000000000000000000000000000815260040160405180910390fd5b60008473ffffffffffffffffffffffffffffffffffffffff16611ebf611d69565b73ffffffffffffffffffffffffffffffffffffffff161480611eee5750611eed85611ee8611d69565b611b25565b5b80611f335750611efc611d69565b73ffffffffffffffffffffffffffffffffffffffff16611f1b84610871565b73ffffffffffffffffffffffffffffffffffffffff16145b905080611f6c576040517f59c896be00000000000000000000000000000000000000000000000000000000815260040160405180910390fd5b600073ffffffffffffffffffffffffffffffffffffffff168473ffffffffffffffffffffffffffffffffffffffff161415611fd3576040517fea553b3400000000000000000000000000000000000000000000000000000000815260040160405180910390fd5b611fe0858585600161301e565b611fec60008487611d71565b6001600560008773ffffffffffffffffffffffffffffffffffffffff1673ffffffffffffffffffffffffffffffffffffffff16815260200190815260200160002060000160008282829054906101000a900467ffffffffffffffff160392506101000a81548167ffffffffffffffff021916908367ffffffffffffffff1602179055506001600560008673ffffffffffffffffffffffffffffffffffffffff1673ffffffffffffffffffffffffffffffffffffffff16815260200190815260200160002060000160008282829054906101000a900467ffffffffffffffff160192506101000a81548167ffffffffffffffff021916908367ffffffffffffffff1602179055506000600460008581526020019081526020016000209050848160000160006101000a81548173ffffffffffffffffffffffffffffffffffffffff021916908373ffffffffffffffffffffffffffffffffffffffff160217905550428160000160146101000a81548167ffffffffffffffff021916908367ffffffffffffffff16021790555060006001850190506000600460008381526020019081526020016000209050600073ffffffffffffffffffffffffffffffffffffffff168160000160009054906101000a900473ffffffffffffffffffffffffffffffffffffffff1673ffffffffffffffffffffffffffffffffffffffff16141561226c57600054821461226b57878160000160006101000a81548173ffffffffffffffffffffffffffffffffffffffff021916908373ffffffffffffffffffffffffffffffffffffffff16021790555084602001518160000160146101000a81548167ffffffffffffffff021916908367ffffffffffffffff1602179055505b5b505050828473ffffffffffffffffffffffffffffffffffffffff168673ffffffffffffffffffffffffffffffffffffffff167fddf252ad1be2c89b69c2b068fc378daa952ba7f163c4a11628f55a4df523b3ef60405160405180910390a46122d78585856001613024565b5050505050565b60008073ffffffffffffffffffffffffffffffffffffffff16600c60009054906101000a900473ffffffffffffffffffffffffffffffffffffffff1673ffffffffffffffffffffffffffffffffffffffff161415612371576040517f08c379a000000000000000000000000000000000000000000000000000000000815260040161236890614bf1565b60405180910390fd5b600061237c8461302a565b9050600c60009054906101000a900473ffffffffffffffffffffffffffffffffffffffff1673ffffffffffffffffffffffffffffffffffffffff166123ca848361305a90919063ffffffff16565b73ffffffffffffffffffffffffffffffffffffffff161491505092915050565b61246d846323b872dd60e01b85858560405160240161240b939291906149cc565b604051602081830303815290604052907bffffffffffffffffffffffffffffffffffffffffffffffffffffffff19166020820180517bffffffffffffffffffffffffffffffffffffffffffffffffffffffff8381831617835250505050613081565b50505050565b61248d828260405180602001604052806000815250613148565b5050565b600061249c83612907565b9050600081600001519050821561257d5760008173ffffffffffffffffffffffffffffffffffffffff166124ce611d69565b73ffffffffffffffffffffffffffffffffffffffff1614806124fd57506124fc826124f7611d69565b611b25565b5b80612542575061250b611d69565b73ffffffffffffffffffffffffffffffffffffffff1661252a86610871565b73ffffffffffffffffffffffffffffffffffffffff16145b90508061257b576040517f59c896be00000000000000000000000000000000000000000000000000000000815260040160405180910390fd5b505b61258b81600086600161301e565b61259760008583611d71565b6000600560008373ffffffffffffffffffffffffffffffffffffffff1673ffffffffffffffffffffffffffffffffffffffff168152602001908152602001600020905060018160000160008282829054906101000a900467ffffffffffffffff160392506101000a81548167ffffffffffffffff021916908367ffffffffffffffff16021790555060018160000160108282829054906101000a900467ffffffffffffffff160192506101000a81548167ffffffffffffffff021916908367ffffffffffffffff1602179055506000600460008781526020019081526020016000209050828160000160006101000a81548173ffffffffffffffffffffffffffffffffffffffff021916908373ffffffffffffffffffffffffffffffffffffffff160217905550428160000160146101000a81548167ffffffffffffffff021916908367ffffffffffffffff160217905550600181600001601c6101000a81548160ff02191690831515021790555060006001870190506000600460008381526020019081526020016000209050600073ffffffffffffffffffffffffffffffffffffffff168160000160009054906101000a900473ffffffffffffffffffffffffffffffffffffffff1673ffffffffffffffffffffffffffffffffffffffff1614156127fb5760005482146127fa57848160000160006101000a81548173ffffffffffffffffffffffffffffffffffffffff021916908373ffffffffffffffffffffffffffffffffffffffff16021790555085602001518160000160146101000a81548167ffffffffffffffff021916908367ffffffffffffffff1602179055505b5b5050505083600073ffffffffffffffffffffffffffffffffffffffff168273ffffffffffffffffffffffffffffffffffffffff167fddf252ad1be2c89b69c2b068fc378daa952ba7f163c4a11628f55a4df523b3ef60405160405180910390a4612869816000866001613024565b60016000815480929190600101919050555050505050565b6129028363a9059cbb60e01b84846040516024016128a0929190614a4f565b604051602081830303815290604052907bffffffffffffffffffffffffffffffffffffffffffffffffffffffff19166020820180517bffffffffffffffffffffffffffffffffffffffffffffffffffffffff8381831617835250505050613081565b505050565b61290f613c81565b60008290508061291d611e23565b1115801561292c575060005481105b15612b5f576000600460008381526020019081526020016000206040518060600160405290816000820160009054906101000a900473ffffffffffffffffffffffffffffffffffffffff1673ffffffffffffffffffffffffffffffffffffffff1673ffffffffffffffffffffffffffffffffffffffff1681526020016000820160149054906101000a900467ffffffffffffffff1667ffffffffffffffff1667ffffffffffffffff16815260200160008201601c9054906101000a900460ff16151515158152505090508060400151612b5d57600073ffffffffffffffffffffffffffffffffffffffff16816000015173ffffffffffffffffffffffffffffffffffffffff1614612a41578092505050612b91565b5b600115612b5c57818060019003925050600460008381526020019081526020016000206040518060600160405290816000820160009054906101000a900473ffffffffffffffffffffffffffffffffffffffff1673ffffffffffffffffffffffffffffffffffffffff1673ffffffffffffffffffffffffffffffffffffffff1681526020016000820160149054906101000a900467ffffffffffffffff1667ffffffffffffffff1667ffffffffffffffff16815260200160008201601c9054906101000a900460ff1615151515815250509050600073ffffffffffffffffffffffffffffffffffffffff16816000015173ffffffffffffffffffffffffffffffffffffffff1614612b57578092505050612b91565b612a42565b5b505b6040517fdf2d9b4200000000000000000000000000000000000000000000000000000000815260040160405180910390fd5b919050565b6060600d8054612ba59061514d565b80601f0160208091040260200160405190810160405280929190818152602001828054612bd19061514d565b8015612c1e5780601f10612bf357610100808354040283529160200191612c1e565b820191906000526020600020905b815481529060010190602001808311612c0157829003601f168201915b5050505050905090565b6000600860009054906101000a900473ffffffffffffffffffffffffffffffffffffffff16905081600860006101000a81548173ffffffffffffffffffffffffffffffffffffffff021916908373ffffffffffffffffffffffffffffffffffffffff1602179055508173ffffffffffffffffffffffffffffffffffffffff168173ffffffffffffffffffffffffffffffffffffffff167f8be0079c531659141344cd1fd0a4f28419497f9722a3daafe3b4186f6b6457e060405160405180910390a35050565b6000808273ffffffffffffffffffffffffffffffffffffffff163b119050919050565b60008373ffffffffffffffffffffffffffffffffffffffff1663150b7a02612d37611d69565b8786866040518563ffffffff1660e01b8152600401612d599493929190614a03565b602060405180830381600087803b158015612d7357600080fd5b505af1925050508015612da457506040513d601f19601f82011682018060405250810190612da1919061421a565b60015b612e1e573d8060008114612dd4576040519150601f19603f3d011682016040523d82523d6000602084013e612dd9565b606091505b50600081511415612e16576040517fd1a57ed600000000000000000000000000000000000000000000000000000000815260040160405180910390fd5b805181602001fd5b63150b7a0260e01b7bffffffffffffffffffffffffffffffffffffffffffffffffffffffff1916817bffffffffffffffffffffffffffffffffffffffffffffffffffffffff191614915050949350505050565b60606000821415612eb9576040518060400160405280600181526020017f30000000000000000000000000000000000000000000000000000000000000008152509050613019565b600082905060005b60008214612eeb578080612ed4906151b0565b915050600a82612ee49190614f8b565b9150612ec1565b60008167ffffffffffffffff811115612f2d577f4e487b7100000000000000000000000000000000000000000000000000000000600052604160045260246000fd5b6040519080825280601f01601f191660200182016040528015612f5f5781602001600182028036833780820191505090505b5090505b6000851461301257600182612f789190615016565b9150600a85612f879190615231565b6030612f939190614f35565b60f81b818381518110612fcf577f4e487b7100000000000000000000000000000000000000000000000000000000600052603260045260246000fd5b60200101907effffffffffffffffffffffffffffffffffffffffffffffffffffffffffffff1916908160001a905350600a8561300b9190614f8b565b9450612f63565b8093505050505b919050565b50505050565b50505050565b60008160405160200161303d919061494d565b604051602081830303815290604052805190602001209050919050565b6000806000613069858561315a565b91509150613076816131dd565b819250505092915050565b60006130e3826040518060400160405280602081526020017f5361666545524332303a206c6f772d6c6576656c2063616c6c206661696c65648152508573ffffffffffffffffffffffffffffffffffffffff1661352e9092919063ffffffff16565b90506000815111156131435780806020019051810190613103919061419f565b613142576040517f08c379a000000000000000000000000000000000000000000000000000000000815260040161313990614d91565b60405180910390fd5b5b505050565b6131558383836001613546565b505050565b60008060418351141561319c5760008060006020860151925060408601519150606086015160001a905061319087828585613914565b945094505050506131d6565b6040835114156131cd5760008060208501519150604085015190506131c2868383613a21565b9350935050506131d6565b60006002915091505b9250929050565b60006004811115613217577f4e487b7100000000000000000000000000000000000000000000000000000000600052602160045260246000fd5b816004811115613250577f4e487b7100000000000000000000000000000000000000000000000000000000600052602160045260246000fd5b141561325b5761352b565b60016004811115613295577f4e487b7100000000000000000000000000000000000000000000000000000000600052602160045260246000fd5b8160048111156132ce577f4e487b7100000000000000000000000000000000000000000000000000000000600052602160045260246000fd5b141561330f576040517f08c379a000000000000000000000000000000000000000000000000000000000815260040161330690614b91565b60405180910390fd5b60026004811115613349577f4e487b7100000000000000000000000000000000000000000000000000000000600052602160045260246000fd5b816004811115613382577f4e487b7100000000000000000000000000000000000000000000000000000000600052602160045260246000fd5b14156133c3576040517f08c379a00000000000000000000000000000000000000000000000000000000081526004016133ba90614c11565b60405180910390fd5b600360048111156133fd577f4e487b7100000000000000000000000000000000000000000000000000000000600052602160045260246000fd5b816004811115613436577f4e487b7100000000000000000000000000000000000000000000000000000000600052602160045260246000fd5b1415613477576040517f08c379a000000000000000000000000000000000000000000000000000000000815260040161346e90614cb1565b60405180910390fd5b6004808111156134b0577f4e487b7100000000000000000000000000000000000000000000000000000000600052602160045260246000fd5b8160048111156134e9577f4e487b7100000000000000000000000000000000000000000000000000000000600052602160045260246000fd5b141561352a576040517f08c379a000000000000000000000000000000000000000000000000000000000815260040161352190614cf1565b60405180910390fd5b5b50565b606061353d8484600085613a80565b90509392505050565b600080549050600073ffffffffffffffffffffffffffffffffffffffff168573ffffffffffffffffffffffffffffffffffffffff1614156135b3576040517f2e07630000000000000000000000000000000000000000000000000000000000815260040160405180910390fd5b60008414156135ee576040517fb562e8dd00000000000000000000000000000000000000000000000000000000815260040160405180910390fd5b6135fb600086838761301e565b83600560008773ffffffffffffffffffffffffffffffffffffffff1673ffffffffffffffffffffffffffffffffffffffff16815260200190815260200160002060000160008282829054906101000a900467ffffffffffffffff160192506101000a81548167ffffffffffffffff021916908367ffffffffffffffff16021790555083600560008773ffffffffffffffffffffffffffffffffffffffff1673ffffffffffffffffffffffffffffffffffffffff16815260200190815260200160002060000160088282829054906101000a900467ffffffffffffffff160192506101000a81548167ffffffffffffffff021916908367ffffffffffffffff160217905550846004600083815260200190815260200160002060000160006101000a81548173ffffffffffffffffffffffffffffffffffffffff021916908373ffffffffffffffffffffffffffffffffffffffff160217905550426004600083815260200190815260200160002060000160146101000a81548167ffffffffffffffff021916908367ffffffffffffffff1602179055506000819050600085820190508380156137c557506137c48773ffffffffffffffffffffffffffffffffffffffff16612cee565b5b1561388b575b818773ffffffffffffffffffffffffffffffffffffffff16600073ffffffffffffffffffffffffffffffffffffffff167fddf252ad1be2c89b69c2b068fc378daa952ba7f163c4a11628f55a4df523b3ef60405160405180910390a461383a6000888480600101955088612d11565b613870576040517fd1a57ed600000000000000000000000000000000000000000000000000000000815260040160405180910390fd5b808214156137cb57826000541461388657600080fd5b6138f7565b5b818060010192508773ffffffffffffffffffffffffffffffffffffffff16600073ffffffffffffffffffffffffffffffffffffffff167fddf252ad1be2c89b69c2b068fc378daa952ba7f163c4a11628f55a4df523b3ef60405160405180910390a48082141561388c575b81600081905550505061390d6000868387613024565b5050505050565b6000807f7fffffffffffffffffffffffffffffff5d576e7357a4501ddfe92f46681b20a08360001c111561394f576000600391509150613a18565b601b8560ff16141580156139675750601c8560ff1614155b15613979576000600491509150613a18565b60006001878787876040516000815260200160405260405161399e9493929190614a93565b6020604051602081039080840390855afa1580156139c0573d6000803e3d6000fd5b505050602060405103519050600073ffffffffffffffffffffffffffffffffffffffff168173ffffffffffffffffffffffffffffffffffffffff161415613a0f57600060019250925050613a18565b80600092509250505b94509492505050565b60008060007f7fffffffffffffffffffffffffffffffffffffffffffffffffffffffffffffff60001b841690506000601b60ff8660001c901c613a649190614f35565b9050613a7287828885613914565b935093505050935093915050565b606082471015613ac5576040517f08c379a0000000000000000000000000000000000000000000000000000000008152600401613abc90614cd1565b60405180910390fd5b613ace85612cee565b613b0d576040517f08c379a0000000000000000000000000000000000000000000000000000000008152600401613b0490614d71565b60405180910390fd5b6000808673ffffffffffffffffffffffffffffffffffffffff168587604051613b369190614912565b60006040518083038185875af1925050503d8060008114613b73576040519150601f19603f3d011682016040523d82523d6000602084013e613b78565b606091505b5091509150613b88828286613b94565b92505050949350505050565b60608315613ba457829050613bf4565b600083511115613bb75782518084602001fd5b816040517f08c379a0000000000000000000000000000000000000000000000000000000008152600401613beb9190614b38565b60405180910390fd5b9392505050565b828054613c079061514d565b90600052602060002090601f016020900481019282613c295760008555613c70565b82601f10613c4257805160ff1916838001178555613c70565b82800160010185558215613c70579182015b82811115613c6f578251825591602001919060010190613c54565b5b509050613c7d9190613cc4565b5090565b6040518060600160405280600073ffffffffffffffffffffffffffffffffffffffff168152602001600067ffffffffffffffff1681526020016000151581525090565b5b80821115613cdd576000816000905550600101613cc5565b5090565b6000613cf4613cef84614e11565b614dec565b90508083825260208201905082856020860282011115613d1357600080fd5b60005b85811015613d435781613d298882613e32565b845260208401935060208301925050600181019050613d16565b5050509392505050565b6000613d60613d5b84614e3d565b614dec565b905082815260208101848484011115613d7857600080fd5b613d8384828561510b565b509392505050565b6000613d9e613d9984614e6e565b614dec565b905082815260208101848484011115613db657600080fd5b613dc184828561510b565b509392505050565b600081359050613dd881615708565b92915050565b600082601f830112613def57600080fd5b8135613dff848260208601613ce1565b91505092915050565b600081359050613e178161571f565b92915050565b600081519050613e2c8161571f565b92915050565b600081359050613e4181615736565b92915050565b600081359050613e568161574d565b92915050565b600081519050613e6b8161574d565b92915050565b60008083601f840112613e8357600080fd5b8235905067ffffffffffffffff811115613e9c57600080fd5b602083019150836001820283011115613eb457600080fd5b9250929050565b600082601f830112613ecc57600080fd5b8135613edc848260208601613d4d565b91505092915050565b600081359050613ef481615764565b92915050565b600082601f830112613f0b57600080fd5b8135613f1b848260208601613d8b565b91505092915050565b600081359050613f338161577b565b92915050565b600081519050613f488161577b565b92915050565b600060208284031215613f6057600080fd5b6000613f6e84828501613dc9565b91505092915050565b60008060408385031215613f8a57600080fd5b6000613f9885828601613dc9565b9250506020613fa985828601613dc9565b9150509250929050565b600080600060608486031215613fc857600080fd5b6000613fd686828701613dc9565b9350506020613fe786828701613dc9565b9250506040613ff886828701613f24565b9150509250925092565b6000806000806080858703121561401857600080fd5b600061402687828801613dc9565b945050602061403787828801613dc9565b935050604061404887828801613f24565b925050606085013567ffffffffffffffff81111561406557600080fd5b61407187828801613ebb565b91505092959194509250565b6000806040838503121561409057600080fd5b600061409e85828601613dc9565b92505060206140af85828601613e08565b9150509250929050565b600080604083850312156140cc57600080fd5b60006140da85828601613dc9565b92505060206140eb85828601613f24565b9150509250929050565b60008060008060008060a0878903121561410e57600080fd5b600061411c89828a01613dc9565b965050602061412d89828a01613f24565b955050604087013567ffffffffffffffff81111561414a57600080fd5b61415689828a01613dde565b945050606061416789828a01613f24565b935050608087013567ffffffffffffffff81111561418457600080fd5b61419089828a01613e71565b92509250509295509295509295565b6000602082840312156141b157600080fd5b60006141bf84828501613e1d565b91505092915050565b6000602082840312156141da57600080fd5b60006141e884828501613e32565b91505092915050565b60006020828403121561420357600080fd5b600061421184828501613e47565b91505092915050565b60006020828403121561422c57600080fd5b600061423a84828501613e5c565b91505092915050565b60006020828403121561425557600080fd5b600061426384828501613ee5565b91505092915050565b6000806040838503121561427f57600080fd5b600061428d85828601613ee5565b925050602061429e85828601613f24565b9150509250929050565b6000602082840312156142ba57600080fd5b600082013567ffffffffffffffff8111156142d457600080fd5b6142e084828501613efa565b91505092915050565b6000602082840312156142fb57600080fd5b600061430984828501613f24565b91505092915050565b60006020828403121561432457600080fd5b600061433284828501613f39565b91505092915050565b600061434783836143f5565b60208301905092915050565b61435c8161504a565b82525050565b61437361436e8261504a565b6151f9565b82525050565b600061438482614ec4565b61438e8185614ef2565b935061439983614e9f565b8060005b838110156143ca5781516143b1888261433b565b97506143bc83614ee5565b92505060018101905061439d565b5085935050505092915050565b6143e08161505c565b82525050565b6143ef81615068565b82525050565b6143fe81615068565b82525050565b61441561441082615068565b61520b565b82525050565b60006144278385614f0e565b935061443483858461510b565b82840190509392505050565b600061444b82614ecf565b6144558185614efd565b935061446581856020860161511a565b61446e8161531e565b840191505092915050565b600061448482614ecf565b61448e8185614f0e565b935061449e81856020860161511a565b80840191505092915050565b6144b3816150e7565b82525050565b60006144c482614eda565b6144ce8185614f19565b93506144de81856020860161511a565b6144e78161531e565b840191505092915050565b60006144fd82614eda565b6145078185614f2a565b935061451781856020860161511a565b80840191505092915050565b600081546145308161514d565b61453a8186614f19565b9450600182166000811461455557600181146145675761459a565b60ff198316865260208601935061459a565b61457085614eaf565b60005b8381101561459257815481890152600182019150602081019050614573565b808801955050505b50505092915050565b60006145b0601883614f19565b91506145bb8261533c565b602082019050919050565b60006145d3601d83614f19565b91506145de82615365565b602082019050919050565b60006145f6601383614f19565b91506146018261538e565b602082019050919050565b6000614619601383614f19565b9150614624826153b7565b602082019050919050565b600061463c601f83614f19565b9150614647826153e0565b602082019050919050565b600061465f601c83614f2a565b915061466a82615409565b601c82019050919050565b6000614682601a83614f19565b915061468d82615432565b602082019050919050565b60006146a5602683614f19565b91506146b08261545b565b604082019050919050565b60006146c8601083614f19565b91506146d3826154aa565b602082019050919050565b60006146eb601183614f19565b91506146f6826154d3565b602082019050919050565b600061470e602283614f19565b9150614719826154fc565b604082019050919050565b6000614731602683614f19565b915061473c8261554b565b604082019050919050565b6000614754602283614f19565b915061475f8261559a565b604082019050919050565b6000614777602083614f19565b9150614782826155e9565b602082019050919050565b600061479a601883614f19565b91506147a582615612565b602082019050919050565b60006147bd600083614f0e565b91506147c88261563b565b600082019050919050565b60006147e0601783614f19565b91506147eb8261563e565b602082019050919050565b6000614803601d83614f19565b915061480e82615667565b602082019050919050565b6000614826602a83614f19565b915061483182615690565b604082019050919050565b6000614849600f83614f19565b9150614854826156df565b602082019050919050565b614868816150d0565b82525050565b61487f61487a826150d0565b615227565b82525050565b61488e816150da565b82525050565b60006148a08287614362565b6014820191506148b08286614404565b6020820191506148c08285614362565b6014820191506148d0828461486e565b60208201915081905095945050505050565b60006148ee8284614379565b915081905092915050565b600061490682848661441b565b91508190509392505050565b600061491e8284614479565b915081905092915050565b600061493582856144f2565b915061494182846144f2565b91508190509392505050565b600061495882614652565b91506149648284614404565b60208201915081905092915050565b600061497e826147b0565b9150819050919050565b600060208201905061499d6000830184614353565b92915050565b60006040820190506149b86000830185614353565b6149c56020830184614353565b9392505050565b60006060820190506149e16000830186614353565b6149ee6020830185614353565b6149fb604083018461485f565b949350505050565b6000608082019050614a186000830187614353565b614a256020830186614353565b614a32604083018561485f565b8181036060830152614a448184614440565b905095945050505050565b6000604082019050614a646000830185614353565b614a71602083018461485f565b9392505050565b6000602082019050614a8d60008301846143d7565b92915050565b6000608082019050614aa860008301876143e6565b614ab56020830186614885565b614ac260408301856143e6565b614acf60608301846143e6565b95945050505050565b6000602082019050614aed60008301846144aa565b92915050565b6000608082019050614b0860008301876144aa565b614b15602083018661485f565b614b2260408301856144aa565b614b2f606083018461485f565b95945050505050565b60006020820190508181036000830152614b5281846144b9565b905092915050565b60006040820190508181036000830152614b7481856144b9565b90508181036020830152614b888184614523565b90509392505050565b60006020820190508181036000830152614baa816145a3565b9050919050565b60006020820190508181036000830152614bca816145c6565b9050919050565b60006020820190508181036000830152614bea816145e9565b9050919050565b60006020820190508181036000830152614c0a8161460c565b9050919050565b60006020820190508181036000830152614c2a8161462f565b9050919050565b60006020820190508181036000830152614c4a81614675565b9050919050565b60006020820190508181036000830152614c6a81614698565b9050919050565b60006020820190508181036000830152614c8a816146bb565b9050919050565b60006020820190508181036000830152614caa816146de565b9050919050565b60006020820190508181036000830152614cca81614701565b9050919050565b60006020820190508181036000830152614cea81614724565b9050919050565b60006020820190508181036000830152614d0a81614747565b9050919050565b60006020820190508181036000830152614d2a8161476a565b9050919050565b60006020820190508181036000830152614d4a8161478d565b9050919050565b60006020820190508181036000830152614d6a816147d3565b9050919050565b60006020820190508181036000830152614d8a816147f6565b9050919050565b60006020820190508181036000830152614daa81614819565b9050919050565b60006020820190508181036000830152614dca8161483c565b9050919050565b6000602082019050614de6600083018461485f565b92915050565b6000614df6614e07565b9050614e02828261517f565b919050565b6000604051905090565b600067ffffffffffffffff821115614e2c57614e2b6152ef565b5b602082029050602081019050919050565b600067ffffffffffffffff821115614e5857614e576152ef565b5b614e618261531e565b9050602081019050919050565b600067ffffffffffffffff821115614e8957614e886152ef565b5b614e928261531e565b9050602081019050919050565b6000819050602082019050919050565b60008190508160005260206000209050919050565b600081519050919050565b600081519050919050565b600081519050919050565b6000602082019050919050565b600081905092915050565b600082825260208201905092915050565b600081905092915050565b600082825260208201905092915050565b600081905092915050565b6000614f40826150d0565b9150614f4b836150d0565b9250827fffffffffffffffffffffffffffffffffffffffffffffffffffffffffffffffff03821115614f8057614f7f615262565b5b828201905092915050565b6000614f96826150d0565b9150614fa1836150d0565b925082614fb157614fb0615291565b5b828204905092915050565b6000614fc7826150d0565b9150614fd2836150d0565b9250817fffffffffffffffffffffffffffffffffffffffffffffffffffffffffffffffff048311821515161561500b5761500a615262565b5b828202905092915050565b6000615021826150d0565b915061502c836150d0565b92508282101561503f5761503e615262565b5b828203905092915050565b6000615055826150b0565b9050919050565b60008115159050919050565b6000819050919050565b60007fffffffff0000000000000000000000000000000000000000000000000000000082169050919050565b60006150a98261504a565b9050919050565b600073ffffffffffffffffffffffffffffffffffffffff82169050919050565b6000819050919050565b600060ff82169050919050565b60006150f2826150f9565b9050919050565b6000615104826150b0565b9050919050565b82818337600083830152505050565b60005b8381101561513857808201518184015260208101905061511d565b83811115615147576000848401525b50505050565b6000600282049050600182168061516557607f821691505b60208210811415615179576151786152c0565b5b50919050565b6151888261531e565b810181811067ffffffffffffffff821117156151a7576151a66152ef565b5b80604052505050565b60006151bb826150d0565b91507fffffffffffffffffffffffffffffffffffffffffffffffffffffffffffffffff8214156151ee576151ed615262565b5b600182019050919050565b600061520482615215565b9050919050565b6000819050919050565b60006152208261532f565b9050919050565b6000819050919050565b600061523c826150d0565b9150615247836150d0565b92508261525757615256615291565b5b828206905092915050565b7f4e487b7100000000000000000000000000000000000000000000000000000000600052601160045260246000fd5b7f4e487b7100000000000000000000000000000000000000000000000000000000600052601260045260246000fd5b7f4e487b7100000000000000000000000000000000000000000000000000000000600052602260045260246000fd5b7f4e487b7100000000000000000000000000000000000000000000000000000000600052604160045260246000fd5b6000601f19601f8301169050919050565b60008160601b9050919050565b7f45434453413a20696e76616c6964207369676e61747572650000000000000000600082015250565b7f4552525f4d4953534d415443485f434f554e545f544f54414c4d494e54000000600082015250565b7f494e56414c49445f45585445524e414c5f494400000000000000000000000000600082015250565b7f496e76616c6964207369676e6572206164647200000000000000000000000000600082015250565b7f45434453413a20696e76616c6964207369676e6174757265206c656e67746800600082015250565b7f19457468657265756d205369676e6564204d6573736167653a0a333200000000600082015250565b7f496e76616c69642065746820666f722070757263686173696e67000000000000600082015250565b7f4f776e61626c653a206e6577206f776e657220697320746865207a65726f206160008201527f6464726573730000000000000000000000000000000000000000000000000000602082015250565b7f4552525f5a45524f5f4144445245535300000000000000000000000000000000600082015250565b7f496e76616c6964207369676e6174757265000000000000000000000000000000600082015250565b7f45434453413a20696e76616c6964207369676e6174757265202773272076616c60008201527f7565000000000000000000000000000000000000000000000000000000000000602082015250565b7f416464726573733a20696e73756666696369656e742062616c616e636520666f60008201527f722063616c6c0000000000000000000000000000000000000000000000000000602082015250565b7f45434453413a20696e76616c6964207369676e6174757265202776272076616c60008201527f7565000000000000000000000000000000000000000000000000000000000000602082015250565b7f4f776e61626c653a2063616c6c6572206973206e6f7420746865206f776e6572600082015250565b7f4661696c656420746f2077697468647261772045746865720000000000000000600082015250565b50565b7f5369676e617475726520686173206265656e2075736564000000000000000000600082015250565b7f416464726573733a2063616c6c20746f206e6f6e2d636f6e7472616374000000600082015250565b7f5361666545524332303a204552433230206f7065726174696f6e20646964206e60008201527f6f74207375636365656400000000000000000000000000000000000000000000602082015250565b7f4554485f4e4f545f414c4c4f5745440000000000000000000000000000000000600082015250565b6157118161504a565b811461571c57600080fd5b50565b6157288161505c565b811461573357600080fd5b50565b61573f81615068565b811461574a57600080fd5b50565b61575681615072565b811461576157600080fd5b50565b61576d8161509e565b811461577857600080fd5b50565b615784816150d0565b811461578f57600080fd5b5056fea2646970667358221220e42b95831b3905813a555bf7e44479e0e3be96da8ad59fbdd326598043c4b57464736f6c63430008040033",
  "devdoc": {
    "kind": "dev",
    "methods": {
      "approve(address,uint256)": {
        "details": "See {IERC721-approve}."
      },
      "balanceOf(address)": {
        "details": "See {IERC721-balanceOf}."
      },
      "baseURI()": {
        "details": "Getter for the base URI.",
        "returns": {
          "_0": "Base URI of the NFT."
        }
      },
      "burn(uint256)": {
        "details": "Burns `tokenId`. See {ERC721A-_burn}. Requirements: - The caller must own `tokenId` or be an approved operator."
      },
      "changeAuthorizedSignerAddress(address)": {
        "details": "Update the authorized signer address.",
        "params": {
          "signerAddress": "new authorized signer address."
        }
      },
      "getApproved(uint256)": {
        "details": "See {IERC721-getApproved}."
      },
      "isApprovedForAll(address,address)": {
        "details": "See {IERC721-isApprovedForAll}."
      },
      "name()": {
        "details": "See {IERC721Metadata-name}."
      },
      "owner()": {
        "details": "Returns the address of the current owner."
      },
      "ownerOf(uint256)": {
        "details": "See {IERC721-ownerOf}."
      },
      "renounceOwnership()": {
        "details": "Leaves the contract without owner. It will not be possible to call `onlyOwner` functions anymore. Can only be called by the current owner. NOTE: Renouncing ownership will leave the contract without an owner, thereby removing any functionality that is only available to the owner."
      },
      "safeMint(address,uint256,bytes32[],uint256,bytes)": {
        "params": {
          "to": "Address of receiver"
        }
      },
      "safeTransferFrom(address,address,uint256)": {
        "details": "See {IERC721-safeTransferFrom}."
      },
      "safeTransferFrom(address,address,uint256,bytes)": {
        "details": "See {IERC721-safeTransferFrom}."
      },
      "setApprovalForAll(address,bool)": {
        "details": "See {IERC721-setApprovalForAll}."
      },
      "setBaseURI(string)": {
        "details": "Only owner can migrate base URI",
        "params": {
          "newBaseURIPrefix": "string prefix of start URI"
        }
      },
      "supportsInterface(bytes4)": {
        "details": "See {IERC165-supportsInterface}."
      },
      "symbol()": {
        "details": "See {IERC721Metadata-symbol}."
      },
      "tokenURI(uint256)": {
        "details": "See {IERC721Metadata-tokenURI}."
      },
      "totalSupply()": {
        "details": "Burned tokens are calculated here, use _totalMinted() if you want to count just minted tokens."
      },
      "transferFrom(address,address,uint256)": {
        "details": "See {IERC721-transferFrom}."
      },
      "transferOwnership(address)": {
        "details": "Transfers ownership of the contract to a new account (`newOwner`). Can only be called by the current owner."
      },
      "updatePriceSettings(address,uint256)": {
        "details": "Update the token price.",
        "params": {
          "newTokenPrice": "The new token price."
        }
      },
      "withdraw(address)": {
        "details": "Owner withdraw revenue from Sales",
        "params": {
          "token_": "token address to be withdrawn."
        }
      }
    },
    "version": 1
  },
  "userdoc": {
    "events": {
      "SetExternalID(uint256,bytes32)": {
        "notice": "EVENT "
      }
    },
    "kind": "user",
    "methods": {
      "externalID(bytes32)": {
        "notice": "mapped external id => tokenId"
      },
      "usedExternalID(bytes32)": {
        "notice": "mapped external id => usedExternalId (bool)"
      }
    },
    "version": 1
  },
  "storageLayout": {
    "storage": [
      {
        "astId": 2136,
        "contract": "contracts/RFOXTV.sol:RFOXTV",
        "label": "_currentIndex",
        "offset": 0,
        "slot": "0",
        "type": "t_uint256"
      },
      {
        "astId": 2138,
        "contract": "contracts/RFOXTV.sol:RFOXTV",
        "label": "_burnCounter",
        "offset": 0,
        "slot": "1",
        "type": "t_uint256"
      },
      {
        "astId": 2140,
        "contract": "contracts/RFOXTV.sol:RFOXTV",
        "label": "_name",
        "offset": 0,
        "slot": "2",
        "type": "t_string_storage"
      },
      {
        "astId": 2142,
        "contract": "contracts/RFOXTV.sol:RFOXTV",
        "label": "_symbol",
        "offset": 0,
        "slot": "3",
        "type": "t_string_storage"
      },
      {
        "astId": 2147,
        "contract": "contracts/RFOXTV.sol:RFOXTV",
        "label": "_ownerships",
        "offset": 0,
        "slot": "4",
        "type": "t_mapping(t_uint256,t_struct(TokenOwnership)2125_storage)"
      },
      {
        "astId": 2152,
        "contract": "contracts/RFOXTV.sol:RFOXTV",
        "label": "_addressData",
        "offset": 0,
        "slot": "5",
        "type": "t_mapping(t_address,t_struct(AddressData)2134_storage)"
      },
      {
        "astId": 2156,
        "contract": "contracts/RFOXTV.sol:RFOXTV",
        "label": "_tokenApprovals",
        "offset": 0,
        "slot": "6",
        "type": "t_mapping(t_uint256,t_address)"
      },
      {
        "astId": 2162,
        "contract": "contracts/RFOXTV.sol:RFOXTV",
        "label": "_operatorApprovals",
        "offset": 0,
        "slot": "7",
        "type": "t_mapping(t_address,t_mapping(t_address,t_bool))"
      },
      {
        "astId": 7,
        "contract": "contracts/RFOXTV.sol:RFOXTV",
        "label": "_owner",
        "offset": 0,
        "slot": "8",
        "type": "t_address"
      },
      {
        "astId": 1555,
        "contract": "contracts/RFOXTV.sol:RFOXTV",
        "label": "usedSignature",
        "offset": 0,
        "slot": "9",
        "type": "t_mapping(t_bytes_memory_ptr,t_bool)"
      },
      {
        "astId": 1560,
        "contract": "contracts/RFOXTV.sol:RFOXTV",
        "label": "externalID",
        "offset": 0,
        "slot": "10",
        "type": "t_mapping(t_bytes32,t_uint256)"
      },
      {
        "astId": 1565,
        "contract": "contracts/RFOXTV.sol:RFOXTV",
        "label": "usedExternalID",
        "offset": 0,
        "slot": "11",
        "type": "t_mapping(t_bytes32,t_bool)"
      },
      {
        "astId": 1567,
        "contract": "contracts/RFOXTV.sol:RFOXTV",
        "label": "authorizedSignerAddress",
        "offset": 0,
        "slot": "12",
        "type": "t_address"
      },
      {
        "astId": 1569,
        "contract": "contracts/RFOXTV.sol:RFOXTV",
        "label": "_baseURIPrefix",
        "offset": 0,
        "slot": "13",
        "type": "t_string_storage"
      },
      {
        "astId": 1571,
        "contract": "contracts/RFOXTV.sol:RFOXTV",
        "label": "tokenPrice",
        "offset": 0,
        "slot": "14",
        "type": "t_uint256"
      },
      {
        "astId": 1574,
        "contract": "contracts/RFOXTV.sol:RFOXTV",
        "label": "saleToken",
        "offset": 0,
        "slot": "15",
        "type": "t_contract(IERC20)185"
      }
    ],
    "types": {
      "t_address": {
        "encoding": "inplace",
        "label": "address",
        "numberOfBytes": "20"
      },
      "t_bool": {
        "encoding": "inplace",
        "label": "bool",
        "numberOfBytes": "1"
      },
      "t_bytes32": {
        "encoding": "inplace",
        "label": "bytes32",
        "numberOfBytes": "32"
      },
      "t_bytes_memory_ptr": {
        "encoding": "bytes",
        "label": "bytes",
        "numberOfBytes": "32"
      },
      "t_contract(IERC20)185": {
        "encoding": "inplace",
        "label": "contract IERC20",
        "numberOfBytes": "20"
      },
      "t_mapping(t_address,t_bool)": {
        "encoding": "mapping",
        "key": "t_address",
        "label": "mapping(address => bool)",
        "numberOfBytes": "32",
        "value": "t_bool"
      },
      "t_mapping(t_address,t_mapping(t_address,t_bool))": {
        "encoding": "mapping",
        "key": "t_address",
        "label": "mapping(address => mapping(address => bool))",
        "numberOfBytes": "32",
        "value": "t_mapping(t_address,t_bool)"
      },
      "t_mapping(t_address,t_struct(AddressData)2134_storage)": {
        "encoding": "mapping",
        "key": "t_address",
        "label": "mapping(address => struct ERC721A.AddressData)",
        "numberOfBytes": "32",
        "value": "t_struct(AddressData)2134_storage"
      },
      "t_mapping(t_bytes32,t_bool)": {
        "encoding": "mapping",
        "key": "t_bytes32",
        "label": "mapping(bytes32 => bool)",
        "numberOfBytes": "32",
        "value": "t_bool"
      },
      "t_mapping(t_bytes32,t_uint256)": {
        "encoding": "mapping",
        "key": "t_bytes32",
        "label": "mapping(bytes32 => uint256)",
        "numberOfBytes": "32",
        "value": "t_uint256"
      },
      "t_mapping(t_bytes_memory_ptr,t_bool)": {
        "encoding": "mapping",
        "key": "t_bytes_memory_ptr",
        "label": "mapping(bytes => bool)",
        "numberOfBytes": "32",
        "value": "t_bool"
      },
      "t_mapping(t_uint256,t_address)": {
        "encoding": "mapping",
        "key": "t_uint256",
        "label": "mapping(uint256 => address)",
        "numberOfBytes": "32",
        "value": "t_address"
      },
      "t_mapping(t_uint256,t_struct(TokenOwnership)2125_storage)": {
        "encoding": "mapping",
        "key": "t_uint256",
        "label": "mapping(uint256 => struct ERC721A.TokenOwnership)",
        "numberOfBytes": "32",
        "value": "t_struct(TokenOwnership)2125_storage"
      },
      "t_string_storage": {
        "encoding": "bytes",
        "label": "string",
        "numberOfBytes": "32"
      },
      "t_struct(AddressData)2134_storage": {
        "encoding": "inplace",
        "label": "struct ERC721A.AddressData",
        "members": [
          {
            "astId": 2127,
            "contract": "contracts/RFOXTV.sol:RFOXTV",
            "label": "balance",
            "offset": 0,
            "slot": "0",
            "type": "t_uint64"
          },
          {
            "astId": 2129,
            "contract": "contracts/RFOXTV.sol:RFOXTV",
            "label": "numberMinted",
            "offset": 8,
            "slot": "0",
            "type": "t_uint64"
          },
          {
            "astId": 2131,
            "contract": "contracts/RFOXTV.sol:RFOXTV",
            "label": "numberBurned",
            "offset": 16,
            "slot": "0",
            "type": "t_uint64"
          },
          {
            "astId": 2133,
            "contract": "contracts/RFOXTV.sol:RFOXTV",
            "label": "aux",
            "offset": 24,
            "slot": "0",
            "type": "t_uint64"
          }
        ],
        "numberOfBytes": "32"
      },
      "t_struct(TokenOwnership)2125_storage": {
        "encoding": "inplace",
        "label": "struct ERC721A.TokenOwnership",
        "members": [
          {
            "astId": 2120,
            "contract": "contracts/RFOXTV.sol:RFOXTV",
            "label": "addr",
            "offset": 0,
            "slot": "0",
            "type": "t_address"
          },
          {
            "astId": 2122,
            "contract": "contracts/RFOXTV.sol:RFOXTV",
            "label": "startTimestamp",
            "offset": 20,
            "slot": "0",
            "type": "t_uint64"
          },
          {
            "astId": 2124,
            "contract": "contracts/RFOXTV.sol:RFOXTV",
            "label": "burned",
            "offset": 28,
            "slot": "0",
            "type": "t_bool"
          }
        ],
        "numberOfBytes": "32"
      },
      "t_uint256": {
        "encoding": "inplace",
        "label": "uint256",
        "numberOfBytes": "32"
      },
      "t_uint64": {
        "encoding": "inplace",
        "label": "uint64",
        "numberOfBytes": "8"
      }
    }
  }
}